:100000000C9462000C948A000C948A000C948A0070
:100010000C948A000C948A000C948A000C948A0038
:100020000C948A000C948A000C948A000C948A0028
:100030000C948A000C948A000C948A000C948A0018
:100040000C94C0030C948A000C948E030C946803E7
:100050000C948A000C948A000C948A000C948A00F8
:100060000C948A000C948A000000000024002700F1
:100070002A0000000000250028002B0000000008D6
:10008000000201000003040700000000000000005F
:1000900000000000230026002900040404040404D6
:1000A0000404020202020202030303030303010227
:1000B00004081020408001020408102001020408F6
:1000C0001020810511241FBECFEFD8E0DEBFCDBFC9
:1000D00011E0A0E0B1E0E8E2F0E102C005900D928D
:1000E000AA32B107D9F721E0AAE2B1E001C01D921E
:1000F000A03DB207E1F710E0C2E6D0E004C02197CE
:10010000FE010E940C08C136D107C9F70E944F04B6
:100110000C9412080C940000AF92BF92CF92DF9221
:10012000EF92FF920F931F93CF93DF936C017B01AC
:100130008B01040F151FEB015E01AE18BF08C0173D
:10014000D10759F06991D601ED91FC910190F081B0
:10015000E02DC6010995892B79F7C501DF91CF9173
:100160001F910F91FF90EF90DF90CF90BF90AF90D5
:100170000895FC01538D448D252F30E0842F90E0AD
:10018000821B930B541710F0CF9608950197089592
:10019000FC01918D828D981761F0A28DAE0FBF2F5B
:1001A000B11D5D968C91928D9F5F9F73928F90E0B1
:1001B00008958FEF9FEF0895FC01918D828D981720
:1001C00031F0828DE80FF11D858D90E008958FEF5D
:1001D0009FEF0895FC01918D228D892F90E0805C26
:1001E0009F4F821B91098F739927089583E391E0B4
:1001F0000E94EA0021E0892B09F420E0822F089573
:1002000080E090E0892B29F00E94F60081110C9487
:1002100000000895FC01A48DA80FB92FB11DA35AA9
:10022000BF4F2C91848D90E001968F739927848F16
:10023000A689B7892C93A089B1898C918370806439
:100240008C93938D848D981306C00288F389E02DDA
:1002500080818F7D80830895EF92FF920F931F938B
:10026000CF93DF93EC0181E0888F9B8D8C8D981369
:100270001AC0E889F989808185FF15C09FB7F89475
:10028000EE89FF896083E889F989808183708064C1
:1002900080839FBF81E090E0DF91CF911F910F910C
:1002A000FF90EF900895F62E0B8D10E00F5F1F4F1B
:1002B0000F731127E02E8C8D8E110CC00FB607FC2A
:1002C000FACFE889F989808185FFF5CFCE010E94B8
:1002D0000A01F1CFEB8DEC0FFD2FF11DE35AFF4F1B
:1002E000F0829FB7F8940B8FEA89FB898081806246
:1002F000CFCFCF93DF93EC01888D8823B9F0AA8903
:10030000BB89E889F9898C9185FD03C0808186FDD0
:100310000DC00FB607FCF7CF8C9185FFF2CF80811F
:1003200085FFEDCFCE010E940A01E9CFDF91CF9189
:10033000089590E0FC01E458FF4F2491FC01E25540
:10034000FF4F3491FC01E656FF4FE491EE23C9F0D4
:10035000222339F0233001F1A8F4213019F12230A1
:1003600029F1F0E0EE0FFF1FEE58FF4FA591B49179
:100370008FB7F894EC91611126C030953E233C93E1
:100380008FBF08952730A9F02830C9F0243049F7ED
:10039000809180008F7D03C0809180008F77809353
:1003A0008000DFCF84B58F7784BDDBCF84B58F7DB0
:1003B000FBCF8091B0008F778093B000D2CF809137
:1003C000B0008F7DF9CF3E2BDACFCF93DF9390E053
:1003D000FC01E255FF4F249186569F4FFC0184910A
:1003E0008823D1F090E0880F991FFC01E859FF4F56
:1003F000A591B491FC01EE58FF4FC591D4916111C4
:100400000EC09FB7F8948C91E22FE0958E238C93C9
:100410002881E223E8839FBFDF91CF9108958FB7B2
:10042000F894EC91E22BEC938FBFF6CF3FB7F894A2
:1004300080912F0190913001A0913101B091320152
:1004400026B5A89B05C02F3F19F00196A11DB11D2F
:100450003FBFBA2FA92F982F8827BC01CD01620F6B
:10046000711D811D911D42E0660F771F881F991F26
:100470004A95D1F70895FC0101900020E9F73197E2
:10048000AF01481B590BBC0183E391E00C948C0035
:100490008F929F92AF92BF920F931F93CF93DF9350
:1004A000CDB7DEB7A1970FB6F894DEBF0FBECDBFB4
:1004B00019A2423008F44AE08E010F5D1F4F842ECE
:1004C000912CB12CA12CA50194010E94EA07E62FE2
:1004D000B901CA01EA30F4F4E05DD801EE938D0170
:1004E000232B242B252B79F790E080E0109719F02F
:1004F000CD010E943B02A1960FB6F894DEBF0FBE5D
:10050000CDBFDF91CF911F910F91BF90AF909F9082
:100510008F900895E95CE1CF4F925F926F927F9246
:100520008F929F92AF92BF92CF92DF92EF92FF9203
:100530000F931F93CF936B017C01742EAC019B0131
:100540000E94E507882399F082E191E0CF911F9105
:100550000F91FF90EF90DF90CF90BF90AF909F9062
:100560008F907F906F905F904F900C943B0246016C
:100570005701E894B7F82FEF3FEF4FE75FE7C5016A
:10058000B4010E94E50781110DC02FEF3FEF4FE747
:100590005FE7C501B4010E941B0618161CF486E132
:1005A00091E0D4CF2FEF3FEF4FE75FE4C701B601F3
:1005B0000E94730718161CF48AE191E0C7CF2FEF51
:1005C0003FEF4FE75FECC701B6010E941B0687FDB6
:1005D000F3CF20E030E0A901C701B6010E941B065D
:1005E00010E000E087FF0AC06DE283E391E00E9423
:1005F0002C018C01F7FAF094F7F8F094C0E060E079
:1006000070E080E09FE37C1641F020E030E040E2C3
:1006100051E40E942006CF5FF6CFA70196010E9409
:10062000AF052B013C010E9492064B015C014AE0A0
:100630000E9448027C01E00EF11ECC23C1F1C501ED
:10064000B4010E94C1069B01AC01C301B2010E942A
:10065000AE054B015C016EE283E391E00E942C0148
:10066000E80EF91EC15018F120E030E040E251E4FC
:10067000C501B4010E9478072B013C010E9492063B
:100680004B01B12CA12C4AE0C501B4010E944802E3
:10069000E80EF91EC501B4010E94C1069B01AC0120
:1006A000C301B2010E94AE054B015C01DBCFC70163
:1006B000CF911F910F91FF90EF90DF90CF90BF905F
:1006C000AF909F908F907F906F905F904F90089524
:1006D0001F920F920FB60F9211242F933F934F93B7
:1006E0005F936F937F938F939F93AF93BF93EF939A
:1006F000FF9383E391E00E940A01FF91EF91BF9184
:10070000AF919F918F917F916F915F914F913F91A9
:100710002F910F900FBE0F901F9018951F920F9260
:100720000FB60F9211242F938F939F93EF93FF9304
:10073000E0914301F09144018081E0914901F09101
:100740004A0182FD1BC0908180914C018F5F8F73A5
:1007500020914D01821741F0E0914C01F0E0ED5CF9
:10076000FE4F958F80934C01FF91EF919F918F9158
:100770002F910F900FBE0F901F9018958081F4CF8E
:100780001F920F920FB60F9211242F933F938F93C6
:100790009F93AF93BF9380912B0190912C01A091D7
:1007A0002D01B0912E0130912A0123E0230F2D3726
:1007B00058F50196A11DB11D20932A0180932B01AC
:1007C00090932C01A0932D01B0932E0180912F01C5
:1007D00090913001A0913101B09132010196A11D9B
:1007E000B11D80932F0190933001A0933101B093FC
:1007F0003201BF91AF919F918F913F912F910F90B7
:100800000FBE0F901F90189526E8230F0296A11D8A
:10081000B11DD2CFCF92DF92EF92FF920F931F9331
:10082000E82FF92F05C0015011092109310961F1A3
:10083000908196239417B9F305C00150110921093D
:10084000310911F1908196239413F7CFC12CD12C4B
:10085000E12CF12C0AC08FEFC81AD80AE80AF80A6E
:100860000C151D052E053F0579F080818623841720
:1008700091F36C2D7D2D8E2D9F2D1F910F91FF904B
:10088000EF90DF90CF90089560E070E080E090E01E
:100890001F910F91FF90EF90DF90CF900895789483
:1008A00084B5826084BD84B5816084BD85B5826075
:1008B00085BD85B5816085BD80916E008160809326
:1008C0006E0010928100809181008260809381008F
:1008D000809181008160809381008091800081609F
:1008E000809380008091B10084608093B1008091FA
:1008F000B00081608093B00080917A008460809322
:100900007A0080917A00826080937A0080917A00E8
:10091000816080937A0080917A00806880937A0069
:100920001092C10061E08DE00E94E501E091430179
:10093000F091440182E08083E0913F01F091400119
:100940001082E0914101F09142018FEC808310927E
:100950004B01E0914701F091480186E08083E091EE
:100960004501F0914601808180618083E0914501DD
:10097000F0914601808188608083E0914501F0918B
:100980004601808180688083E0914501F0914601B5
:1009900080818F7D808361E083E00E94E50160E0DB
:1009A00082E00E94E501C3E0D0E023E2A22EB12C58
:1009B0003CE9232E30E0332E40E0842E40E0942E9C
:1009C00060E083E00E949901CE010197F1F761E0B8
:1009D00083E00E949901C5010197F1F760E083E08F
:1009E0000E949901E0EBF0E06491F1018491E82F1D
:1009F000F0E0EE0FFF1FE057FF4F8591949100E468
:100A000012E42FE030E0462F0E940A0461157105C0
:100A10008105910529F06F5F7F4F8F4F9F4F9F702A
:100A20000E94C10626E933E44BE05DE30E947807AB
:100A30002B013C0124E13EEA47EC5EE30E9478078B
:100A400020E030E040E05FE30E9478076B017C012A
:100A500042E00E948C028EE191E00E943B0220E085
:100A600030E040E05FE3C301B2010E94780742E05A
:100A70000E948C0283E291E00E943B0286E291E0B8
:100A80000E943B0220E030E040E251E4C701B601A1
:100A90000E941B0661E087FF60E08DE00E949901E3
:100AA0000E9416022B013C0188EEC82E83E0D82E4E
:100AB000E12CF12C0E941602641975098609970928
:100AC000683E734081059105A8F3F1E0CF1AD10883
:100AD000E108F10828EE420E23E0521E611C711C51
:100AE000C114D104E104F10429F78114910409F43B
:100AF00067CF0E94F600882309F462CF0E940000AD
:100B00005FCFE3E3F1E01382128288EE93E0A0E08E
:100B1000B0E084839583A683B78384E091E09183DA
:100B2000808385EC90E09587848784EC90E09787BC
:100B3000868780EC90E0918B808B81EC90E0938BAA
:100B4000828B82EC90E0958B848B86EC90E0978B87
:100B5000868B118E128E138E148E08955058BB27DB
:100B6000AA270E94C6050C9439070E942B0738F06B
:100B70000E94320720F039F49F3F19F426F40C94B8
:100B800028070EF4E095E7FB0C942207E92F0E945A
:100B90004A0758F3BA17620773078407950720F0CE
:100BA00079F4A6F50C946C070EF4E0950B2EBA2F91
:100BB000A02D0B01B90190010C01CA01A001112463
:100BC000FF27591B99F0593F50F4503E68F11A160F
:100BD000F040A22F232F342F4427585FF3CF4695A0
:100BE00037952795A795F0405395C9F77EF41F16C2
:100BF000BA0B620B730B840BBAF09150A1F0FF0F8C
:100C0000BB1F661F771F881FC2F70EC0BA0F621F77
:100C1000731F841F48F4879577956795B795F79567
:100C20009E3F08F0B0CF9395880F08F09927EE0FFC
:100C30009795879508950E94FE0608F481E008952F
:100C40000E9434060C9439070E94320758F00E9423
:100C50002B0740F029F45F3F29F00C942207511133
:100C60000C946D070C9428070E944A0768F3992397
:100C7000B1F3552391F3951B550BBB27AA27621798
:100C80007307840738F09F5F5F4F220F331F441FA5
:100C9000AA1FA9F335D00E2E3AF0E0E832D09150D9
:100CA0005040E695001CCAF72BD0FE2F29D0660FC6
:100CB000771F881FBB1F261737074807AB07B0E809
:100CC00009F0BB0B802DBF01FF2793585F4F3AF00F
:100CD0009E3F510578F00C9422070C946D075F3FFE
:100CE000E4F3983ED4F3869577956795B795F79595
:100CF0009F5FC9F7880F911D9695879597F908957D
:100D0000E1E0660F771F881FBB1F62177307840718
:100D1000BA0720F0621B730B840BBA0BEE1F88F727
:100D2000E09508950E94520788F09F5798F0B92FD8
:100D30009927B751B0F0E1F0660F771F881F991F10
:100D40001AF0BA95C9F714C0B13091F00E946C073F
:100D5000B1E008950C946C07672F782F8827B85F4F
:100D600039F0B93FCCF3869577956795B395D9F768
:100D70003EF490958095709561957F4F8F4F9F4F72
:100D80000895E89409C097FB3EF49095809570957E
:100D900061957F4F8F4F9F4F9923A9F0F92F96E9C7
:100DA000BB279395F695879577956795B795F1113C
:100DB000F8CFFAF4BB0F11F460FF1BC06F5F7F4FD9
:100DC0008F4F9F4F16C0882311F096E911C07723EB
:100DD00021F09EE8872F762F05C0662371F096E8F4
:100DE000862F70E060E02AF09A95660F771F881FC3
:100DF000DAF7880F9695879597F90895990F000867
:100E0000550FAA0BE0E8FEEF16161706E807F907DC
:100E1000C0F012161306E407F50798F0621B730B77
:100E2000840B950B39F40A2661F0232B242B252BF8
:100E300021F408950A2609F4A140A6958FEF811D9B
:100E4000811D089597F99F6780E870E060E008953C
:100E50009FEF80EC089500240A94161617061806D2
:100E60000906089500240A941216130614060506AE
:100E70000895092E0394000C11F4882352F0BB0F3F
:100E800040F4BF2B11F460FF04C06F5F7F4F8F4FA2
:100E90009F4F089557FD9058440F551F59F05F3FDD
:100EA00071F04795880F97FB991F61F09F3F79F08C
:100EB00087950895121613061406551FF2CF46950E
:100EC000F1DF08C0161617061806991FF1CF869590
:100ED0007105610508940895E894BB276627772774
:100EE000CB0197F908950E94FE0608F48FEF08954C
:100EF0000E948B070C9439070E942B0738F00E9440
:100F0000320720F0952311F00C9422070C94280747
:100F100011240C946D070E944A0770F3959FC1F34A
:100F2000950F50E0551F629FF001729FBB27F00D97
:100F3000B11D639FAA27F00DB11DAA1F649F6627EC
:100F4000B00DA11D661F829F2227B00DA11D621F3B
:100F5000739FB00DA11D621F839FA00D611D221FF5
:100F6000749F3327A00D611D231F849F600D211DD9
:100F7000822F762F6A2F11249F5750409AF0F1F05C
:100F800088234AF0EE0FFF1FBB1F661F771F881FC5
:100F900091505040A9F79E3F510580F00C942207D4
:100FA0000C946D075F3FE4F3983ED4F386957795F4
:100FB0006795B795F795E7959F5FC1F7FE2B880F6B
:100FC000911D9695879597F908950E94FE06880BC6
:100FD000990B0895A1E21A2EAA1BBB1BFD010DC09F
:100FE000AA1FBB1FEE1FFF1FA217B307E407F507D9
:100FF00020F0A21BB30BE40BF50B661F771F881FB5
:10100000991F1A9469F760957095809590959B014A
:10101000AC01BD01CF010895EE0FFF1F0590F491C3
:08102000E02D0994F894FFCFC4
:10102800000000002C018C00B9007901EA00C8001A
:10103800DC006E616E00696E66006F766600696E30
:0A1048002C2000636D000D0A00006B
:00000001FF
