:100000000C9462000C948A000C948A000C948A0070
:100010000C948A000C948A000C948A000C948A0038
:100020000C948A000C948A000C948A000C948A0028
:100030000C948A000C948A000C948A000C948A0018
:100040000C9439030C948A000C9407030C94E1027D
:100050000C948A000C948A000C948A000C948A00F8
:100060000C948A000C948A000000000023002600F3
:10007000290000000008000201000003040700003E
:1000800000000000000000000000250028002B00F8
:1000900000000000240027002A00040404040404D3
:1000A0000404020202020202030303030303010227
:1000B00004081020408001020408102001020408F6
:1000C0001020E20411241FBECFEFD8E0DEBFCDBF69
:1000D00011E0A0E0B1E0E2E7FAE002C005900D9285
:1000E000AE31B107D9F721E0AEE1B1E001C01D9218
:1000F000A63CB207E1F710E0C2E6D0E004C02197C9
:10010000FE010E943105C136D107C9F70E94830361
:100110000C9437050C94000090E0FC01E255FF4F71
:10012000249186569F4FFC018491882399F090E09A
:10013000880F991FFC01E057FF4FA591B491FC0176
:10014000EA57FF4F859194918FB7F894EC91E22B89
:10015000EC938FBF0895AF92BF92CF92DF92EF9250
:10016000FF920F931F93CF93DF936C017B018B0161
:10017000040F151FEB015E01AE18BF08C017D107B1
:1001800059F06991D601ED91FC910190F081E02D3B
:10019000C6010995892B79F7C501DF91CF911F9190
:1001A0000F91FF90EF90DF90CF90BF90AF900895A8
:1001B000FC01538D448D252F30E0842F90E0821B6D
:1001C000930B541710F0CF96089501970895FC01F2
:1001D000918D828D981761F0A28DAE0FBF2FB11D4A
:1001E0005D968C91928D9F5F9F73928F90E00895A2
:1001F0008FEF9FEF0895FC01918D828D981731F05C
:10020000828DE80FF11D858D90E008958FEF9FEFAF
:100210000895FC01918D228D892F90E0805C9F4F85
:10022000821B91098F739927089589E291E00E94BA
:10023000090121E0892B09F420E0822F089580E054
:1002400090E0892B29F00E94150181110C94000087
:100250000895FC01A48DA80FB92FB11DA35ABF4F5B
:100260002C91848D90E001968F739927848FA689B5
:10027000B7892C93A089B1898C91837080648C9309
:10028000938D848D981306C00288F389E02D8081B8
:100290008F7D80830895EF92FF920F931F93CF93EA
:1002A000DF93EC0181E0888F9B8D8C8D98131AC0B1
:1002B000E889F989808185FF15C09FB7F894EE8998
:1002C000FF896083E889F9898081837080648083F5
:1002D0009FBF81E090E0DF91CF911F910F91FF9040
:1002E000EF900895F62E0B8D10E00F5F1F4F0F73E8
:1002F0001127E02E8C8D8E110CC00FB607FCFACFA3
:10030000E889F989808185FFF5CFCE010E94290116
:10031000F1CFEB8DEC0FFD2FF11DE35AFF4FF08273
:100320009FB7F8940B8FEA89FB8980818062CFCFD9
:10033000CF93DF93EC01888D8823B9F0AA89BB891C
:10034000E889F9898C9185FD03C0808186FD0DC007
:100350000FB607FCF7CF8C9185FFF2CF808185FF28
:10036000EDCFCE010E942901E9CFDF91CF91089511
:10037000833081F028F4813099F08230A9F008951B
:100380008730A9F08830C9F08430B1F480918000C2
:100390008F7D03C0809180008F77809380000895C7
:1003A00084B58F7784BD089584B58F7DFBCF809110
:1003B000B0008F778093B00008958091B0008F7D5A
:1003C000F9CFCF93DF93282F30E0F901EE58FF4F9C
:1003D0008491F901E255FF4FD491F901E656FF4FA0
:1003E000C491CC23A1F081110E94B801EC2FF0E060
:1003F000EE0FFF1FE859FF4FA591B491EC91ED234B
:1004000081E090E009F480E0DF91CF91089580E0F1
:1004100090E0FACF1F93CF93DF93282F30E0F901BC
:10042000EE58FF4F8491F901E255FF4FD491F90145
:10043000E656FF4FC491CC23A9F0162F81110E94DC
:10044000B801EC2FF0E0EE0FFF1FEA57FF4FA59128
:10045000B4918FB7F894EC91111108C0D095DE23B8
:10046000DC938FBFDF91CF911F910895DE2BF8CFE2
:100470008E50806480937C0080917A0080648093A9
:100480007A0080917A0086FDFCCF8091780090916F
:10049000790008953FB7F894809123019091240149
:1004A000A0912501B091260126B5A89B05C02F3F3C
:1004B00019F00196A11DB11D3FBFBA2FA92F982F8A
:1004C0008827BC01CD01620F711D811D911D42E085
:1004D000660F771F881F991F4A95D1F70895FC0171
:1004E00001900020E9F73197AF01481B590BBC017F
:1004F00089E291E00C94AB008F929F92AF92BF92F1
:100500000F931F93CF93DF93CDB7DEB7A1970FB6AD
:10051000F894DEBF0FBECDBF19A2423008F44AE006
:100520008E010F5D1F4F842E912CB12CA12CA501A3
:1005300094010E940F05E62FB901CA01EA30F4F4D4
:10054000E05DD801EE938D01232B242B252B79F729
:1005500090E080E0109719F0CD010E946F02A19603
:100560000FB6F894DEBF0FBECDBFDF91CF911F91C4
:100570000F91BF90AF909F908F900895E95CE1CF6D
:10058000CF92DF92EF92FF92CF93DF936B017C01CA
:100590006DE289E291E00E944B01EC01662777272A
:1005A000CB016C197D098E099F094AE00E947C02EB
:1005B0008C0F9D1FDF91CF91FF90EF90DF90CF9038
:1005C00008951F920F920FB60F9211242F933F930D
:1005D0004F935F936F937F938F939F93AF93BF934B
:1005E000EF93FF9389E291E00E942901FF91EF913F
:1005F000BF91AF919F918F917F916F915F914F913B
:100600003F912F910F900FBE0F901F9018951F9242
:100610000F920FB60F9211242F938F939F93EF9306
:10062000FF93E0913901F0913A018081E0913F011F
:10063000F091400182FD1BC09081809142018F5F4B
:100640008F7320914301821741F0E0914201F0E065
:10065000E75DFE4F958F80934201FF91EF919F914F
:100660008F912F910F900FBE0F901F901895808142
:10067000F4CF1F920F920FB60F9211242F933F9336
:100680008F939F93AF93BF9380911F01909120010F
:10069000A0912101B091220130911E0123E0230F8E
:1006A0002D3758F50196A11DB11D20931E01809391
:1006B0001F0190932001A0932101B093220180910A
:1006C000230190912401A0912501B091260101966A
:1006D000A11DB11D8093230190932401A0932501B6
:1006E000B0932601BF91AF919F918F913F912F9130
:1006F0000F900FBE0F901F90189526E8230F0296BB
:10070000A11DB11DD2CF789484B5826084BD84B51B
:10071000816084BD85B5826085BD85B5816085BDFC
:1007200080916E00816080936E00109281008091B4
:10073000810082608093810080918100816080933C
:100740008100809180008160809380008091B10061
:1007500084608093B1008091B00081608093B0008C
:1007600080917A00846080937A0080917A00826020
:1007700080937A0080917A00816080937A008091E2
:100780007A00806880937A001092C1008CE00E9409
:100790008C008BE00E948C008AE00E948C00E0912B
:1007A0003901F0913A0182E08083E0913501F091C6
:1007B00036011082E0913701F09138018FEC80838F
:1007C00010924101E0913D01F0913E0186E080836D
:1007D000E0913B01F0913C01808180618083E09158
:1007E0003B01F0913C01808188608083E0913B0176
:1007F000F0913C01808180688083E0913B01F09121
:100800003C0180818F7D80832CE7C22E20E0D22E98
:1008100030E0E32E30E0F32E8FE00E9438028C01AE
:100820008EE00E94380297FD0396EC01D595C7959E
:10083000D595C795D0932801C093270182E00E94E7
:10084000E1018AE00E948C00209709F067C060E017
:100850008AE00E940A02B801110F880B990B97FFDA
:10086000A3C00E94C00282E191E00E946F0285E174
:1008700091E00E946F0282E191E00E946F0260911C
:10088000270170912801072E000C880B990B97FF08
:100890008FC00E94C00282E191E00E946F020E941C
:1008A0004A022B013C0188EE882E83E0982EA12C71
:1008B000B12C0E944A026419750986099709683E9D
:1008C000734081059105A8F3F1E08F1A9108A10802
:1008D000B10828EE420E23E0521E611C711C8114E7
:1008E0009104A104B10429F7802F0E94E101892B12
:1008F00009F462C060E08CE00E940A0261E08BE0D3
:100900000E940A02E114F10409F486CF0E94150145
:10091000882309F481CF0E9400007ECFCF3FD1050C
:1009200011F461E095CFF6018491833019F140F420
:100930008130B1F08230C9F0C038D10594F787CF4B
:10094000873011F1883041F18430B1F78091800017
:10095000806280938000D0938B00C0938A007BCF0D
:1009600084B5806884BDC7BD76CF84B5806284BD00
:10097000C8BD71CF80918000806880938000D09343
:100980008900C093880067CF8091B0008068809311
:10099000B000C093B3005FCF8091B00080628093BD
:1009A000B000C093B40057CF4AE00E947C025BCFF6
:1009B0004AE00E947C026FCF61E08CE00E940A0254
:1009C00060E09DCFE9E2F1E01382128288EE93E0CD
:1009D000A0E0B0E084839583A683B78384E091E0B0
:1009E0009183808385EC90E09587848784EC90E008
:1009F0009787868780EC90E0918B808B81EC90E0EC
:100A0000938B828B82EC90E0958B848B86EC90E0CC
:100A1000978B868B118E128E138E148E0895A1E201
:100A20001A2EAA1BBB1BFD010DC0AA1FBB1FEE1F68
:100A3000FF1FA217B307E407F50720F0A21BB30BB3
:100A4000E40BF50B661F771F881F991F1A9469F72F
:100A500060957095809590959B01AC01BD01CF018B
:100A60000895EE0FFF1F0590F491E02D0994F8947E
:020A7000FFCFB6
:100A7200000000004B01AB00D80098010901E7001B
:0E0A8200FB000D0A00546F6320446F3A200001
:00000001FF
