:100000000C9463000C948B000C948B000C948B006C
:100010000C948B000C948B000C948B000C948B0034
:100020000C948B000C948B000C948B000C948B0024
:100030000C948B000C948B000C948B000C948B0014
:100040000C943C050C948B000C940A050C94E4046D
:100050000C948B000C948B000C948B000C948B00F4
:100060000C948B000C948B000000000024002700EF
:100070002A0000000000250028002B0000000000DE
:1000800023002600290004040404040404040202DA
:100090000202020203030303030301020408102007
:1000A0004080010204081020010204081020000012
:1000B0000008000201000003040700000000000027
:1000C00000008605570911241FBECFEFD8E0DEBF20
:1000D000CDBF22E0ACE8B1E001C01D92A73CB20761
:1000E000E1F711E0A0E0B1E0EAE4F7E102C0059039
:1000F0000D92AC38B107D9F710E0C2E6D0E004C0E9
:100100002197FE010E949709C136D107C9F70E94C5
:1001100053060C94980B0C94000096E0899FD00134
:100120001124A45CBD4F90967C936E935F9791E0F1
:1001300091969C939197E091A902F091AA029091D7
:10014000A802992339F0309751F0811108C08091AD
:1001500058020994309719F05C968C91FACF089563
:10016000CF92DF92EF92FF920F931F9396E0899FB9
:10017000F0011124E45CFD4F11A2278D30A1213044
:10018000310551F178F02230310509F451C02330A6
:10019000310509F452C01F910F91FF90EF90DF904D
:1001A000CF9008956623B9F361E070E00E948D005E
:1001B0002FB7F8948091950190919601A0919701A5
:1001C000B09198012FBF8093940290939502A093D1
:1001D0009602B0939702DFCF9FB7F894C090950135
:1001E000D0909601E0909701F09098019FBF009108
:1001F0009402109195022091960230919702C01AB4
:10020000D10AE20AF30A0091A6021091A70230E097
:1002100020E00C151D052E053F0550F462E070E04E
:100220001F910F91FF90EF90DF90CF900C948D0075
:100230006111B1CF63E070E0F3CF70E060E0F0CF28
:10024000AF92BF92CF92DF92EF92FF920F931F93E4
:10025000CF93DF936C017B018B01040F151FEB0122
:100260005E01AE18BF08C017D10759F06991D601D9
:10027000ED91FC910190F081E02DC6010995892B4B
:1002800079F7C501DF91CF911F910F91FF90EF900A
:10029000DF90CF90BF90AF900895FC01538D448DB7
:1002A000252F30E0842F90E0821B930B541710F021
:1002B000CF96089501970895FC01918D828D98172E
:1002C00061F0A28DAE0FBF2FB11D5D968C91928D06
:1002D0009F5F9F73928F90E008958FEF9FEF089537
:1002E000FC01918D828D981731F0828DE80FF11D00
:1002F000858D90E008958FEF9FEF0895FC01918D1B
:10030000228D892F90E0805C9F4F821B91098F7313
:100310009927089589E991E00E947E0121E0892BC7
:1003200009F420E0822F089580E090E0892B29F0E5
:100330000E948A0181110C9400000895FC01A48D93
:10034000A80FB92FB11DA35ABF4F2C91848D90E0F7
:1003500001968F739927848FA689B7892C93A089DA
:10036000B1898C91837080648C93938D848D981364
:1003700006C00288F389E02D80818F7D80830895F7
:10038000EF92FF920F931F93CF93DF93EC0181E0E5
:10039000888F9B8D8C8D98131AC0E889F98980818C
:1003A00085FF15C09FB7F894EE89FF896083E889BF
:1003B000F98980818370806480839FBF81E090E0B1
:1003C000DF91CF911F910F91FF90EF900895F62E3E
:1003D0000B8D10E00F5F1F4F0F731127E02E8C8DD8
:1003E0008E110CC00FB607FCFACFE889F98980811D
:1003F00085FFF5CFCE010E949E01F1CFEB8DEC0F72
:10040000FD2FF11DE35AFF4FF0829FB7F8940B8F39
:10041000EA89FB8980818062CFCFCF93DF93EC01A3
:10042000888D8823B9F0AA89BB89E889F9898C91DC
:1004300085FD03C0808186FD0DC00FB607FCF7CF98
:100440008C9185FFF2CF808185FFEDCFCE010E9498
:100450009E01E9CFDF91CF910895833081F028F498
:10046000813099F08230A9F008958730A9F0883062
:10047000C9F08430B1F4809180008F7D03C08091F9
:1004800080008F7780938000089584B58F7784BD36
:10049000089584B58F7DFBCF8091B0008F778093D6
:1004A000B00008958091B0008F7DF9CFCF93DF9396
:1004B000282F30E0F901E255FF4F8491F901E6560B
:1004C000FF4FD491F901EA57FF4FC491CC23A1F01B
:1004D00081110E942D02EC2FF0E0EE0FFF1FE45877
:1004E000FF4FA591B491EC91ED2381E090E009F4E8
:1004F00080E0DF91CF91089580E090E0FACF862FE1
:100500000C9456021F93CF93DF93282F30E0F9010C
:10051000E255FF4F8491F901E656FF4FD491F9015E
:10052000EA57FF4FC491CC23A9F0162F81110E94E6
:100530002D02EC2FF0E0EE0FFF1FEE58FF4FA591BC
:10054000B4918FB7F894EC91111108C0D095DE23C7
:10055000DC938FBFDF91CF911F910895DE2BF8CFF1
:10056000862F642F0C948202CF93DF9390E0FC01DE
:10057000E656FF4F24918A579F4FFC0184918823B0
:10058000C9F090E0880F991FFC01E859FF4FA59131
:10059000B491FC01EE58FF4FC591D49161110DC08B
:1005A0009FB7F8948C91209582238C93888128237F
:1005B00028839FBFDF91CF910895623051F49FB798
:1005C000F8943C91822F809583238C93E8812E2B85
:1005D000EFCF8FB7F894EC912E2B2C938FBFEACFEF
:1005E000862F642F0C94B4023FB7F89480918D014C
:1005F00090918E01A0918F01B091900126B5A89B9A
:1006000005C02F3F19F00196A11DB11D3FBFBA2FA4
:10061000A92F982F8827BC01CD01620F711D811D64
:10062000911D42E0660F771F881F991F4A95D1F7E9
:100630000895089590E080E00895CF93DF93EC0152
:1006400060E08E810E94820261E08E810E948202BF
:1006500060E08E810E9482028BE891E00197F1F7C1
:10066000DF91CF910895CF92DF92EF92FF920F9397
:100670001F93CF93DF936C017C0187E0E80EF11CA0
:10068000D0E0C0E0062F10E0B8010C2E02C0759536
:1006900067950A94E2F76170F70181917F010E94EA
:1006A00082022196C430D10579F7C601DF91CF913E
:1006B0001F910F91FF90EF90DF90CF900C941D034E
:1006C000CF92DF92EF92FF920F931F93CF93DF931E
:1006D000EC01F62E642F8C810E9482028D818F3F67
:1006E00019F060E00E9482020F2D10E08F8584FFD8
:1006F00025C06E0187E0C80ED11CF12CE12CB80199
:100700000E2C02C0759567950A94E2F76170F601A8
:1007100081916F010E948202FFEFEF1AFF0A88E0C9
:10072000E816F10461F7CE01DF91CF911F910F918F
:10073000FF90EF90DF90CF900C941D03B80184E000
:10074000759567958A95E1F7CE010E9433036F2D69
:10075000CE01DF91CF911F910F91FF90EF90DF902D
:10076000CF900C94330340E0682F8BEA92E00C9416
:10077000600381E00E94B3038BE39FE10197F1F7EF
:100780000895CF93DF93823029F49091BA02986054
:100790009093BA028093BE021092BF0280E48093CD
:1007A000C00280E18093C10280E58093C20261E0D3
:1007B0008091AF020E94B4028091B0028F3F19F085
:1007C00061E00E94B40261E08091B1020E94B40233
:1007D000CBEAD2E09E012B5A32408091BA0284FDCE
:1007E0000BC084E090E021962817390744F461E0BB
:1007F0008E810E94B402EECF88E090E0F4CF8BE3CC
:100800009DE00197F1F760E08091AF020E948202C3
:1008100060E08091B1020E9482028091B0028F3F1D
:1008200019F060E00E9482028091BA0284FD34C017
:1008300063E08BEA92E00E943303CBE4D6E4CE017E
:100840000197F1F763E08BEA92E00E94330321976E
:10085000F1F763E08BEA92E00E94330383E592E0D4
:100860000197F1F762E08BEA92E00E9433038091F6
:10087000BA0280620E94B30384E08093BB028CE0E2
:100880000E94B3030E94B90382E08093BC0286E019
:10089000DF91CF910C94B30380620E94B3038BE489
:1008A00096E40197F1F78091BA0280620E94B30347
:1008B00083E592E00197F1F78091BA0280620E948D
:1008C000B303D5CF643008F063E09091BE0269179E
:1008D00010F06FEF690FE62FF0E0E555FD4F9489BA
:1008E000890F80680C94B30341E00E94600381E0AB
:1008F00090E00895FB0101900020E9F73197AF01E6
:10090000461B570BDC01ED91FC910280F381E02D39
:100910000994CF93DF93EC0188819981009711F0BE
:100920000E94390A198218821D821C821B821A8237
:10093000DF91CF9108950F931F93CF93DF93EC0135
:1009400088819981009759F02A813B8126173707C2
:1009500030F081E0DF91CF911F910F9108958B01CD
:100960006F5F7F4F0E94C20A009759F09983888376
:100970001B830A832C813D81232B59F7FC011082B4
:10098000E8CF80E0E7CFEF92FF920F931F93CF93D2
:10099000DF93EC017B018A01BA010E949B04811163
:1009A0000BC0CE010E948904CE01DF91CF911F912F
:1009B0000F91FF90EF9008951D830C83B7018881FC
:1009C00099810E94910BF0CF1F920F920FB60F9258
:1009D00011242F933F934F935F936F937F938F9344
:1009E0009F93AF93BF93EF93FF9389E991E00E94A8
:1009F0009E01FF91EF91BF91AF919F918F917F9158
:100A00006F915F914F913F912F910F900FBE0F907B
:100A10001F9018951F920F920FB60F9211242F93CB
:100A20008F939F93EF93FF93E091A901F091AA0117
:100A30008081E091AF01F091B00182FD1BC09081F7
:100A40008091B2018F5F8F732091B301821741F0C3
:100A5000E091B201F0E0E756FE4F958F8093B2012E
:100A6000FF91EF919F918F912F910F900FBE0F905B
:100A70001F9018958081F4CF1F920F920FB60F929E
:100A800011242F933F938F939F93AF93BF938091A4
:100A9000950190919601A0919701B09198013091A4
:100AA0008C0123E0230F2D3758F50196A11DB11DB0
:100AB00020938C018093950190939601A0939701C8
:100AC000B093980180918D0190918E01A0918F013A
:100AD000B09190010196A11DB11D80938D0190935D
:100AE0008E01A0938F01B0939001BF91AF919F9120
:100AF0008F913F912F910F900FBE0F901F901895DF
:100B000026E8230F0296A11DB11DD2CF10929C01A1
:100B100010929B0188EE93E0A0E0B0E080939D01ED
:100B200090939E01A0939F01B093A0018DE191E06D
:100B300090939A018093990185EC90E09093A6019F
:100B40008093A50184EC90E09093A8018093A70185
:100B500080EC90E09093AA018093A90181EC90E051
:100B60009093AC018093AB0182EC90E09093AE0146
:100B70008093AD0186EC90E09093B0018093AF013B
:100B80001092B2011092B3011092B4011092B5010B
:100B90001092AE021092AD0289E391E09093AC0204
:100BA0008093AB028DE08093AF028FEF8093B00211
:100BB0008CE08093B10281E18093B20280E1809366
:100BC000B3028FE08093B4028EE08093B50210925E
:100BD000B6021092B7021092B8021092B9021092A7
:100BE000BA0281E00E94C10310923E0210924202BA
:100BF00010924102109243028FE291E090933D02E5
:100C000080933C02E8E5F2E01082148213821582A0
:100C1000369682E0E439F807B9F783E091E09093E3
:100C20009F0280939E0280E091E09093A1028093C6
:100C3000A00284E08093A20283E08093A30287E075
:100C400091E090939D0280939C028AE090E09093C3
:100C5000A5028093A40284EF91E09093A702809371
:100C6000A6021092AA021092A90210929802109263
:100C7000990210929A0210929B021092A80210926E
:100C800037021092360210923902109238021092F6
:100C90003B0210923A0250E040E063E471E086E3E8
:100CA00092E00C94C304CF93DF93CDB7DEB72897BF
:100CB0000FB6F894DEBF0FBECDBF789484B58260C6
:100CC00084BD84B5816084BD85B5826085BD85B5F0
:100CD000816085BD80916E00816080936E0010926E
:100CE00081008091810082608093810080918100E9
:100CF000816080938100809180008160809380007A
:100D00008091B10084608093B1008091B0008160D7
:100D10008093B00080917A00846080937A00809103
:100D20007A00826080937A0080917A00816080935B
:100D30007A0080917A00806880937A001092C100D6
:100D4000E091A901F091AA0182E08083E091A501E0
:100D5000F091A6011082E091A701F091A8018FEC1B
:100D600080831092B101E091AD01F091AE0186E077
:100D70008083E091AB01F091AC0180818061808340
:100D8000E091AB01F091AC01808188608083E091BB
:100D9000AB01F091AC01808180688083E091AB0170
:100DA000F091AC0180818F7D808382E00E94C1033D
:100DB00060919101809193010E94620461E08BE057
:100DC0000E94B402412C512C3201439421E0209323
:100DD000A8028FB7F89440919501509196016091C7
:100DE0009701709198018FBF80919802909199021C
:100DF000A0919A02B0919B02481B590B6A0B7B0B86
:100E00008091A4029091A502B0E0A0E0841795071C
:100E1000A607B70708F021C110E08091A2021817B9
:100E200060F4E0919E02F0919F02E10FF11D62E0FB
:100E300080810E94B4021F5FF0CF312C8091A30209
:100E4000381608F061C0E32CF12CE091A002F0917B
:100E5000A102EE0DFF1D61E080810E94B402E091CD
:100E6000A002F091A102EE0DFF1D60E080810E94C2
:100E70008202D301C201032C04C0880F991FAA1F4C
:100E8000BB1F0A94D2F74C016C01C094D094212C62
:100E90008091A202281608F5022D10E0E0919E0232
:100EA000F0919F02E00FF11F80810E9456020C5FBB
:100EB0001F4F000F111FF801E45CFD4F892B41F417
:100EC0008081918188299929918380832394E0CF1F
:100ED000808191818C219D21F7CFE091A002F0913A
:100EE000A102EE0DFF1D61E080810E9482028091CF
:100EF000A0029091A102E80EF91E60E0F701808146
:100F00000E94B40233949ACF0CE312E07801F70107
:100F1000878D90A1892B31F4148E8FEF9FEF968FE0
:100F2000858F11A296E0E90EF11CE8E7EE16E2E0EB
:100F3000FE0669F7912C8091A202981608F053C022
:100F4000812CC92CD12CCC0CDD1CC6018C5B9D4F97
:100F50006C012091A302821608F043C0F601608163
:100F60007181082C02C0769567950A94E2F7929EEB
:100F700090011124280D311DECE3F2E080E0458D55
:100F8000568D2417350709F490C18F5F36968A3045
:100F9000B1F760FF24C0ECE3F2E090E080E0448D24
:100FA000411118C0E0919C02F0919D02E20FF31FE5
:100FB000408156E0589FF001599FF00D1124E45CE8
:100FC000FD4F448F368F258F10A2178E61E00E944F
:100FD000B00005C0019636968A30910501F78394DA
:100FE000B8CF9394A8CF80E0F80191A19111892FF7
:100FF0000A5F1F4FE016F106B9F79FB7F8944091CA
:1010000095015091960160919701709198019FBF51
:10101000409398025093990260939A0270939B02B6
:101020008823D9F080915D028823B9F080915B021A
:1010300090915C02019789F4F0905802F11010C071
:1010400080E090E0892B09F4C1CE0E948A018823B8
:1010500009F4BCCE0E940000B9CE1092A802F0CFD5
:101060006F2D89E991E00E94C00161E471E089E996
:1010700091E00E947A0480919301909194010697E7
:101080008CF08091910190919201019682309105AE
:101090000CF077C09093920180939101109294018B
:1010A000109293010091930110919401609191012C
:1010B000802F0E94620441E06F2D8BEA92E00E9433
:1010C00060030F5F1F4F10939401009393011A82E6
:1010D00019821C821B821E821D82609136027091D1
:1010E00037026115710541F040913A0250913B027F
:1010F000CE0101960E94C304FF8218860D811E81D5
:101100000F5F1F4FB801CE0101960E949B04811111
:101110003FC0CE0101960E94890469817A816115E0
:10112000710509F443C04D815E8186E392E00E941F
:10113000C30489819A81009711F00E94390AFAE26A
:10114000FF1239C062E081E00E94620464E471E051
:101150008BEA92E00E947A0464E471E089E991E00C
:101160000E947A0461E471E089E991E00E947A04C6
:1011700050E040E063E471E086E392E00E94C30443
:101180005FCF10929201109291010E94B90386CF15
:1011900029813A818D819E81BE01695F7F4F820FD7
:1011A000931F0E94910B1E830D83B7CF86E392E0BD
:1011B0000E948904BECF23E2F21242CF63E571E0C0
:1011C00089E991E00E947A0461E471E089E991E0A3
:1011D0000E947A0440913A0250913B02609136029B
:1011E0007091370289E991E00E94200161E471E089
:1011F00089E991E00E947A0480913A0290913B0241
:10120000892BC9F069E671E080913602909137022E
:101210000E94880B892B79F462E081E00E946204CD
:101220006FE671E08BEA92E00E947A0461E08BE065
:101230000E94820205CF62E081E00E9462046EE7B4
:1012400071E08BEA92E00E947A040E94F4026B0142
:101250007C0180ED882E87E0982EA12CB12C0E9475
:10126000F4026C197D098E099F09683E734081055F
:101270009105A8F351E0851A9108A108B10888EEFC
:10128000C80E83E0D81EE11CF11C81149104A10456
:10129000B10429F7109292011092910110929401D9
:1012A000109293010E94B903CBCE617090CE8091D1
:1012B000360290913702009711F00C94390A089584
:1012C0002F923F924F925F926F927F928F929F9256
:1012D000AF92BF92CF92DF92EF92FF920F931F9344
:1012E000CF93DF93CDB7DEB7CA1BDB0B0FB6F894F5
:1012F000DEBF0FBECDBF09942A88398848885F8435
:101300006E847D848C849B84AA84B984C884DF80A5
:10131000EE80FD800C811B81AA81B981CE0FD11D89
:101320000FB6F894DEBF0FBECDBFED010895EE0FEE
:10133000FF1F0590F491E02D09940F931F93CF9315
:10134000DF938230910510F482E090E0E091C502D5
:10135000F091C60230E020E0B0E0A0E0309799F4D0
:101360002115310509F44AC0281B390B24303105F9
:10137000D8F58A819B816115710589F1FB01938301
:101380008283FE0111C0408151810281138148177F
:101390005907E0F04817590799F4109761F0129631
:1013A0000C93129713961C933296CF01DF91CF9135
:1013B0001F910F9108950093C5021093C602F4CFB8
:1013C0002115310551F04217530738F0A901DB010F
:1013D0009A01BD01DF01F801C1CFEF01F9CF909370
:1013E000C6028093C502CDCFFE01E20FF31F8193A9
:1013F00091932250310939832883D7CF2091C3029A
:101400003091C402232B41F4209115013091160133
:101410003093C4022093C302209113013091140130
:101420002115310541F42DB73EB740911701509178
:101430001801241B350BE091C302F091C402E2179E
:10144000F307A0F42E1B3F0B2817390778F0AC01E7
:101450004E5F5F4F2417350748F04E0F5F1F5093C4
:10146000C4024093C302819391939FCFF0E0E0E0E8
:101470009CCFCF93DF930097E9F0FC013297138262
:101480001282A091C502B091C602ED0130E020E0C9
:101490001097A1F420813181820F931F2091C30204
:1014A0003091C4022817390709F061C0F093C402D3
:1014B000E093C302DF91CF910895EA01CE17DF07D1
:1014C000E8F54A815B819E0141155105B1F7E901BB
:1014D000FB83EA8349915991C40FD51FEC17FD078F
:1014E00061F4808191810296840F951FE9019983AF
:1014F0008883828193819B838A83F0E0E0E0129667
:101500008D919C9113970097B9F52D913C9111976E
:10151000CD010296820F931F2091C3023091C40225
:101520002817390739F6309751F51092C6021092F4
:10153000C502B093C402A093C302BCCFD383C283BD
:1015400040815181840F951FC817D90761F44E5F00
:101550005F4F88819981480F591F518340838A8149
:101560009B81938382832115310509F0B0CFF093DD
:10157000C602E093C5029ECFFD01DC01C0CF1382FD
:101580001282D7CFB0E0A0E0E8ECFAE00C94620958
:101590008C01009751F4CB010E949D098C01C80178
:1015A000CDB7DEB7E0E10C947E09FC01E60FF71F32
:1015B0009C0122503109E217F30708F49DC0D901BC
:1015C000CD91DC911197C617D70798F0C530D1059A
:1015D00030F3CE0104978617970708F3C61BD70B85
:1015E0002297C193D1936D937C93CF010E94390AC6
:1015F000D6CF5B01AC1ABD0A4C018C0E9D1EA0918A
:10160000C502B091C602512C412CF12CE12C10974F
:1016100031F58091C3029091C4028815990509F0B3
:101620005CC04616570608F058C08091130190918F
:101630001401009741F48DB79EB740911701509166
:101640001801841B950BE817F90708F055C0F093B3
:10165000C402E093C302F90171836083A0CF8D912E
:101660009C91119712966C90129713967C901397F9
:10167000A815B90559F56C0142E0C40ED11CCA1475
:10168000DB0420F1AC014A195B09DA0112961597C7
:1016900080F06282738251834083D9016D937C9381
:1016A000E114F10471F0D7011396FC93EE931297B5
:1016B00076CF22968C0F9D1FF90191838083F301D1
:1016C000EFCFF093C602E093C50269CF48165906E2
:1016D00008F42C017D01D3019ACFCB010E949D0912
:1016E0007C01009749F0AE01B8010E947F0BC80150
:1016F0000E94390A870153CF10E000E050CFFB0170
:10170000DC0102C001900D9241505040D8F708957D
:10171000FB01DC018D91019080190110D9F3990B27
:101720000895FB01DC0101900D920020E1F708957E
:1017300010E0C2E6D0E004C0FE010E9497092196A5
:0A174000C336D107C9F7F894FFCFB4
:10174A00050607030204083132333435363738398F
:10175A002A30230000C702800000000000C00120D8
:10176A00014D010D027E015C01700100000000F0D4
:10177A0002B0027F0200000000740420011A03195B
:10178A00030D0A00456E7465722050617373776F9A
:10179A0072640056616C69646174652074686520BE
:1017AA0050617373776F72640031323334230041AE
:1017BA006363657373204772616E74656400416385
:0C17CA00636573732044656E69656400FC
:00000001FF
