:020000040800F2
:100000000807002035020008791900084318000885
:100010007519000895050008FB1C00080000000089
:100020000000000000000000000000007F19000830
:1000300099050008000000007D19000881190008DA
:100040004F0200084F0200084F0200084F0200084C
:100050004F0200084F0200084F0200084F0200083C
:100060004F0200084F0200084F0200084F0200082C
:100070004F0200084F0200084F0200084F0200081C
:100080004F0200084F02000825040008000000008D
:100090000000000000000000000000004F02000807
:1000A0004F0200084F0200084F0200084F020008EC
:1000B0004F0200084F0200084F0200084F020008DC
:1000C0004F0200084F0200084F0200084F020008CC
:1000D0004F0200084F0200084F0200080000000015
:1000E0004F0200084F0200084F0200080000000005
:1000F0000000000000000000000000004F020008A7
:10010000000000004F0200084F0200084F020008E4
:1001100000000000000000000000000000000000DF
:100120004F0200084F0200084F0200084F0200086B
:100130004F02000800000000000000000000000066
:100140000000000000000000000000004F02000856
:100150004F0200084F0200084F0200084F0200083B
:100160004F0200084F0200080000000000000000DD
:10017000000000000000000000000000000000007F
:10018000000000004F020008000000000000000016
:100190004F02000800F002F800F03CF80AA090E8D6
:1001A000000C82448344AAF10107DA4501D100F032
:1001B00031F8AFF2090EBAE80F0013F0010F18BFC3
:1001C000FB1A43F0010318472C2100004C210000CA
:1001D000103A24BF78C878C1FAD8520724BF30C873
:1001E00030C144BF04680C60704700000023002445
:1001F00000250026103A28BF78C1FBD8520728BF37
:1002000030C148BF0B6070471FB502F05DF81FBDDD
:1002100010B510BD00F0CFF81146FFF7F5FF01F063
:100220008BFD00F0EDF803B4FFF7F2FF03BC00F024
:10023000F1F800000948804709480047FEE7FEE75B
:10024000FEE7FEE7FEE7FEE7FEE7FEE7FEE7FEE786
:1002500004480549054A064B70470000291A000862
:10026000950100080801002008070020080300206D
:100270000803002053EA020C00F069802DE9F04BDE
:100280004FF00006002B1FBFB3FA83F503FA05F405
:1002900024FA05F65E4012BF1643B2FA82F502FA5E
:1002A00005F4C5F120051EBF22FA05FC44EA0C0442
:1002B000203556EA044C4FEA144418BF641C4FF032
:1002C00000084FF00009904271EB030C39D300296C
:1002D00019BFB1FA81F701FA07F6B0FA80F700FA10
:1002E00007F6C7F120071EBF20FA07FC46EA0C06F6
:1002F0002037B6FBF4FCA7EB0507103F07F01F0BF8
:10030000CBF120060CFA0BFB2CFA06F644BFB346E1
:100310000026202FA4BF5E464FF0000B5BEA060CC0
:1003200008BF4FF0010B19EB0B09ABFB027C48EB4C
:100330000608C01B06FB02CC0BFB03CC71EB0C01C7
:10034000C1E70B46024641464846BDE8F08B13B56F
:100350004FF000004FF00001AFF30080BDE81C40FB
:1003600070474FF0000200B5134694469646203978
:1003700022BFA0E80C50A0E80C50B1F12001BFF45E
:10038000F7AF090728BFA0E80C5048BF0CC05DF8C4
:1003900004EB890028BF40F8042B08BF704748BF12
:1003A00020F8022B11F0804F18BF00F8012B704786
:1003B000704770477047754600F028F8AE46050054
:1003C0006946534620F00700854618B020B5FFF770
:1003D0003FFFBDE820404FF000064FF000074FF010
:1003E00000084FF0000B21F00701AC46ACE8C00953
:1003F000ACE8C009ACE8C009ACE8C0098D4670475C
:100400000446AFF300802046FFF70DFF0048704719
:10041000A400002001491820ABBEFEE72600020020
:100420007047000010B5024800F0D7F910BD000079
:100430001800002055494A6822F440324A604A6850
:1004400043681A434A600268526822F48072036863
:100450005A6002685368026943EA022203685A60DC
:100460000268526822F0407203685A60026852685B
:1004700083681A4303685A600268926822F4006233
:1004800003689A6002689268C3681A4303689A60B6
:100490003F4B826A9A4218D00268926822F07062DA
:1004A00003689A6002689268836A1A4303689A60D4
:1004B0000268926822F0405203689A60026892686B
:1004C000C36A1A4303689A600BE00268926822F0DC
:1004D000706203689A600268926822F04052036872
:1004E0009A600268926822F0020203689A600268C9
:1004F0009368027E43EA420203689A602022125CFB
:10050000A2B10268526842F4006203685A6002684D
:10051000526822F4604203685A6002685368426A73
:10052000521E43EA423203685A6005E0026852688C
:1005300022F4006203685A600268D26A22F47002F0
:100540000368DA620268D36A828B521E43EA02525F
:100550000368DA620268926822F4007203689A60A3
:100560000268936890F8302043EA422203689A6058
:100570000268926822F4806203689A600268936855
:10058000426943EA822203689A607047002301406F
:100590000100000F00BFFEE7704772B600BFFEE724
:1005A0007047000038B502460020009000BF92F866
:1005B0003C00012801D1022038BD012082F83C0016
:1005C00000BF0868092816D91068C0680C780A3C72
:1005D00004EB44050724AC40A0431468E0600C78A9
:1005E0000A3C04EB44048868A0401468E468204393
:1005F0001468E06013E0106800690C7804EB4405AF
:100600000724AC40A043146820610C7804EB440438
:100610008868A040146824692043146820614868F1
:10062000072817D21068406B0C79641E04EB840510
:100630001F24AC40A04314686063088880B20C7922
:10064000641E04EB8404A0401468646B20431468A7
:10065000606331E048680D2817D21068006B0C7990
:10066000E41F04EB84051F24AC40A04314682063FE
:10067000088880B20C79E41F04EB8404A04014685D
:10068000246B20431468206316E01068C06A0C795C
:100690000D3C04EB84051F24AC40A0431468E062C9
:1006A000088880B20C790D3C04EB8404A0401468E7
:1006B000E46A20431468E062194B1A4C1068A042A7
:1006C00006D10868122803D1586840F480005860A9
:1006D000144C1068A0421CD10868102802D0086889
:1006E000112816D1586840F4000058600868102896
:1006F0000FD10D4800680D4CB0FBF4F000EB80000A
:100700004000009002E00098401E009000980028F1
:10071000F9D100BF002082F83C0000BF00BF4BE7CA
:1007200000230140002001401400002040420F003F
:1007300070B52DED088B04461E4920680968884273
:1007400034D1204600F045F80546284601F0A6FCC5
:1007500041EC1B0B9FED180B53EC102B01F046FBEB
:1007600041EC1A0B9FED160B53EC102B01F0AEFC75
:1007700041EC190B01F008FB08EE900A9FED120AFC
:10078000B0EE408AB3EE090AB4EEC08AF1EE10FA78
:1007900005DD0122D1030D4800F0E2FA05E0002258
:1007A0004FF40041094800F0DBFA00BFBDEC088BB4
:1007B00070BD000018000020000000000000904004
:1007C000000000000088B34000002042000C0240FE
:1007D000704701460868C06C704770B50446002534
:1007E000002620680068C0F3400520684068C0F318
:1007F000401695B38EB3206C00F0100018B9206C31
:1008000040F4007020642068806800F04050E8B92F
:10081000207ED8B92068C06A00F4700020B120683A
:10082000806800F4806088B92068406820F020006B
:1008300021684860206C20F480702064206C00F4F3
:10084000805018B9206C40F0010020642046FFF76A
:100850006FFF6FF012002168086020680068C0F325
:10086000800520684068C0F3C016E5B3DEB3206C95
:1008700000F0100018B9206C40F40050206420688B
:10088000806800F4401038BB2068806B00F4401092
:1008900020B12068806800F48060E8B92068406872
:1008A00000F48060C0B92068806800F0405098B9BA
:1008B000207E88B92068406820F080002168486068
:1008C000206C20F480502064206C00F4807018B9F3
:1008D000206C40F0010020642046FFF761FE6FF0BD
:1008E0000C00216808602068006800F0010520689D
:1008F0004068C0F3801685B17EB12068006800F0C2
:10090000010050B1206C40F480302064204600F09B
:1009100053F86FF001002168086020680068C0F398
:10092000401520684068C0F380667DB176B1606C88
:1009300040F0020060646FF02000216808602046EB
:10094000FFF746FF6FF020002168086070BD0000CF
:1009500070B5044600250CB9012070BD1549A06A88
:10096000884200D000BF206C30B9204600F026F845
:100970000020606484F83C00206C00F0100088B90E
:10098000206C20F4885040F0020020642046FFF7DD
:1009900051FD00206064206C20F0020040F0010056
:1009A000206400E0012500BF002084F83C0000BF67
:1009B0002846D2E70100000F7047000010B586B04E
:1009C0000446142101A8FFF7CCFC1D492068884289
:1009D00033D100BF002000901A48006840F48070B6
:1009E000184908600846006800F48070009000BF55
:1009F00000BF00BF0020009012481438006840F08B
:100A000001001049143908600846006800F0010030
:100A1000009000BF00BF0120019003200290002041
:100A2000039001A9084800F0B7F8002211461220EF
:100A300000F026FA122000F013FA06B010BD0000F4
:100A400000200140443802400000024008B5014641
:100A50000020009000BF91F83C00012801D1022045
:100A600008BD012081F83C0000BF0868806800F0E4
:100A70000100A0B90868806840F001000B68986028
:100A800036480068364BB0FBF3F000EB40000090B6
:100A900002E00098401E009000980028F9D10868F4
:100AA000806800F0010000284ED0086C40F201631D
:100AB000984340F4807008640868406800F48060DF
:100AC00028B1086C20F4005040F480500864086C91
:100AD00000F48050B0F5805F04D1486C20F006002F
:100AE000486401E00020486400BF002081F83C0019
:100AF00000BF1C4A6FF022000B681860086840684D
:100B0000194B18430B685860506800F01F0058B923
:100B10000868806800F04050F0B90868806840F0CC
:100B200080400B68986017E0104B0868984213D11A
:100B30000868806800F0405070B90868806840F02C
:100B400080400B68986007E0086C40F01000086473
:100B5000486C40F001004864002081E71400002048
:100B600040420F000023014020000004002001400B
:100B700070B5044600F0FAF806462546681C10B128
:100B800004480078054400BF00F0F0F8801BA8423C
:100B9000FAD370BD10000020F8B502460B460025C0
:100BA000002400200021C6E0012606FA01F51E6897
:100BB00006EA0504AC4274D11E7906F00306012E44
:100BC00004D01E7906F00306022E13D190684F0060
:100BD0000326BE40B0434F00DE68BE403043906005
:100BE000506801268E40B0431E79C6F300168E4031
:100BF000304350601E7906F00306032E09D0D068FA
:100C00004F000326BE40B0434F009E68BE403043B5
:100C1000D0601E7906F00306022E13D1CF0802F130
:100C2000200656F827004E07F70E0F26BE40B043A9
:100C30004F07FF0E1E69BE403043CF0802F1200669
:100C400046F8270010684F000326BE40B0431E79C7
:100C500006F003064F00BE40304310605E6806F4A5
:100C60004036002E66D000BF00260096344E36680F
:100C700046F48046324F3E603E46366806F4804673
:100C8000009600BF00BF2F4E8F0856F827008E0732
:100C9000370F0F26BE40B0432B4EB24202D1002682
:100CA00015E047E0294EB24201D101260FE0284E5F
:100CB000B24201D102260AE0264EB24201D10326F9
:100CC00005E0254EB24201D1042600E007268F0739
:100CD0003F0FBE4030431B4E8F0846F827001F4E83
:100CE0003068A0435E6806F4803606B120431B4E90
:100CF0003060361D3068A0435E6806F4003606B1E9
:100D00002043164E361D3060361D3068A0435E68A5
:100D100006F4801606B12043104E08363060361DAA
:100D20003068A0435E6806F4001606B120430B4EFF
:100D30000C363060491C1029FFF436AFF8BD0000B6
:100D400044380240083801400000024000040240DC
:100D500000080240000C024000100240003C01402C
:100D60000AB1816101E00B048361704701480068AA
:100D70007047000008000020034800680349097814
:100D80000844014908607047080000201000002056
:100D900010B50D48006840F400700B490860084623
:100DA000006840F4806008600846006840F4807085
:100DB0000860032000F0A2F80F2000F007F800F010
:100DC0002BF8002010BD0000003C024070B5044626
:100DD0000E4800784FF47A71B1FBF0F00C490968C5
:100DE000B1FBF0F5284600F02BFC08B1012070BDE6
:100DF000102C07D200222146501E00F041F8054871
:100E0000046001E00120F2E70020F0E7100000207C
:100E1000140000200C00002008B500BF0020009046
:100E20000E48006840F480400C490860084600689D
:100E300000F48040009000BF00BF00BF0020009081
:100E4000081F006840F08050091F086008460068CD
:100E500000F08050009000BF00BF08BD4438024041
:100E600001460846002809DB00F01F0301229A40D2
:100E700043099B0003F1E023C3F8002100BF704742
:100E80002DE9F05F80460D461646002700F038FF3A
:100E9000074639462A46334601F00700C0F1070AE3
:100EA000BAF1040F02D94FF0040A01E0C0F1070AB9
:100EB000D14600F1040ABAF1070F02D24FF0000A3E
:100EC00001E0A0F1030AD4464FF0010A0AFA09FA38
:100ED000AAF1010A0AEA020A0AFA0CFA4FF0010B17
:100EE0000BFA0CFBABF1010B0BEA030B4AEA0B0408
:100EF0002146404600F00CFFBDE8F09F00BF00F027
:100F00000702064B19684FF6FF031940044B0B43C9
:100F100043EA0221014B196000BF70470CED00E06D
:100F20000000FA0570B504460D460CB9012070BDED
:100F30005848006800F00700A84209D255490D70D2
:100F40000846006800F00700A84201D00120EEE743
:100F5000207800F0020002281DD1207800F0040063
:100F6000042805D14C48006840F4E0504A49086024
:100F7000207800F00800082805D14748006840F4B0
:100F80006040454908604448006820F0F000A168CE
:100F9000084341490860207800F00100A8B3606868
:100FA000012807D13C4808380068C0F34040B8B970
:100FB0000120BCE76068022802D06068032807D1DE
:100FC000354808380068C0F3406048B90120AEE7F2
:100FD000314808380068C0F3400008B90120A6E78E
:100FE0002D48006820F00300616808432A49086022
:100FF000FFF7BCFE064609E0FFF7B8FE801B41F292
:101000008831884202D9032091E707E0224800682E
:1010100000F00C006168B0EB810FEDD11D48006855
:1010200000F00700A84209D91A490D700846006867
:1010300000F00700A84201D0012078E7207800F0F6
:101040000400042807D11448006820F4E050E16847
:10105000084311490860207800F00800082808D1EA
:101060000D48006820F46040216940EAC1000A4947
:10107000086000F03FF808490968C1F30311074A06
:10108000515CC8400649086006480068FFF79EFEAC
:1010900000204CE7003C024008380240DC220008F7
:1010A000140000200C000020014800687047000078
:1010B0001400002000B5FFF7F7FF04490968C1F3E9
:1010C0008221034A515CC84000BD0000083802403C
:1010D000EC22000800B5FFF7E7FF04490968C1F3F7
:1010E0004231034A515CC84000BD0000083802404C
:1010F000EC2200082DE9F047002400250026A14637
:101100002548006800F00C0020B1042805D008280C
:101110003AD105E0DFF8849039E0DFF8849036E0DA
:101120001D48001F006800F03F041B48001F0068B6
:1011300000F4800078B11A481749091F0968C1F303
:101140008811A0FB01700146224600233846FFF7B4
:1011500091F805460EE011480F49091F0968C1F3CF
:101160008811A0FB01700146224600233846FFF794
:1011700081F805460848001F0068C0F30140401C84
:101180004600B5FBF6F902E0DFF8109000BF00BFA3
:101190004846BDE8F0870000083802400024F4000B
:1011A00000127A00F8B504460CB90120F8BD207889
:1011B00000F00100002874D0F948006800F00C002D
:1011C00004280DD0F648006800F00C00082813D160
:1011D000F348001F006800F48000B0F5800F0BD1C9
:1011E000EF4808380068C0F34040002859D06068D4
:1011F000002856D10120D9E700BF6068B0F5803FD4
:1012000008D1E7480838006840F48030E4490839DC
:1012100008601EE06068B0F5A02F0DD1E0480838E6
:10122000006840F48020DE490839086008460068FC
:1012300040F4803008600CE0D9480838006820F499
:101240008030D749083908600846006820F48020BB
:10125000086000BF606890B1FFF788FD054606E0B2
:10126000FFF784FD401B642801D903209EE7CC488A
:1012700008380068C0F340400028F1D011E0FFF7C3
:1012800075FD054606E0FFF771FD401B642801D996
:1012900003208BE7C24808380068C0F340400028AC
:1012A000F1D1207800F0020002285FD1BC4800682C
:1012B00000F00C0058B1BA48006800F00C00082893
:1012C0001CD1B748001F006800F48000B0B9B448D2
:1012D00008380068C0F3400020B1E068012801D060
:1012E000012063E7AE480838006820F0F800216963
:1012F00040EAC100AA490839086037E0E06800B355
:101300000120A8490860FFF731FD054606E0FFF718
:101310002DFD401B022801D9032047E7A0480838CB
:101320000068C0F340000028F1D09D4808380068EC
:1013300020F0F800216940EAC100994908390860A5
:1013400014E0002097490860FFF710FD054606E00D
:10135000FFF70CFD401B022801D9032026E7904827
:1013600008380068C0F340000028F1D1207800F070
:10137000080008282CD16069A8B101208A490860BA
:10138000FFF7F4FC054606E0FFF7F0FC401B0228DF
:1013900001D903200AE782486C300068C0F340009E
:1013A0000028F1D014E000207F490860FFF7DEFC40
:1013B000054606E0FFF7DAFC401B022801D90320AE
:1013C000F4E677486C300068C0F340000028F1D1A3
:1013D000207800F00400042870D1002770483830CD
:1013E000006800F0805090B900BF002000906C4869
:1013F0003830006840F0805069493831086008464C
:10140000006800F08050009000BF00BF01276748CF
:10141000006800F48070B0B96448006840F48070DF
:1014200062490860FFF7A2FC054606E0FFF79EFC54
:10143000401B022801D90320B8E65C48006800F48C
:1014400080700028F2D000BFA068012808D154485D
:101450006830006840F001005149683108601DE0C3
:10146000A06805280DD14E486830006840F004009F
:101470004B49683108600846006840F00100086088
:101480000CE047486830006820F0010044496831AA
:1014900008600846006820F00400086000BFA068EB
:1014A000A8B1FFF763FC054609E0FFF75FFC401BAE
:1014B00041F28831884202D9032077E626E0384895
:1014C00068300068C0F340000028EED013E0FFF75A
:1014D0004DFC054608E0FFF749FC401B41F288310E
:1014E000884201D9032061E62D4868300068C0F3C6
:1014F00040000028EFD1012F07D12948383000687B
:1015000020F0805026493831086000BFA0690028CB
:1015100045D02348006800F00C0008285DD0A06981
:10152000022845D100201F490866FFF71FFC054629
:1015300006E0FFF71BFC401B022801D9032035E61B
:10154000174808380068C0F340600028F1D1D4E99A
:1015500007010843616A40EA81110122A06AC2EBD7
:10156000500041EA00412C20005D41EA00600C4936
:10157000091F086001200B490866FFF7F7FB0546C5
:1015800006E0FFF7F3FB401B022801D903200DE61C
:10159000034808380068C0F340600028F1D049E0F3
:1015A0000838024000004742800E47420070004069
:1015B000002021490866FFF7D9FB054606E0FFF742
:1015C000D5FB401B022801D90320EFE51B4800682A
:1015D000C0F340600028F2D12CE0A069012800D1BE
:1015E000E4E51648001D0668A069012820D006F42D
:1015F0008001E06981421BD106F03F01206A8142EF
:1016000016D147F6C0703040616AB0EB811F0FD130
:1016100006F440310122A06AC2EB5000B1EB004F4A
:1016200006D106F070612C20005DB1EB006F01D097
:101630000120BBE50020B9E5000047420038024028
:1016400070B504462546681EB0F1807F01D30120A5
:101650000FE0681E4FF0E02148610F214FF0FF308E
:1016600000F056FB00204FF0E02188610720086160
:10167000002070BD10B504460CB9012010BDA06952
:1016800000B100E000BF94F83D0028B9002084F8C4
:101690003C00204600F028F8242084F83D00206813
:1016A000C06820F400502168C860204600F0C6F9E8
:1016B0002068006920F49040216808612068406932
:1016C00020F02A00216848612068C06840F400507A
:1016D0002168C86000202064202084F83D0084F840
:1016E0003E000020CAE7000010B586B00446142171
:1016F00001A8FEF736FE1B492068884230D100BFA2
:10170000002000901848006840F01000164908605A
:101710000846006800F01000009000BF00BF00BF46
:101720000020009010481438006840F001000E4975
:10173000143908600846006800F00100009000BFFE
:1017400000BF4FF4C060019002200290002003907F
:10175000032004900720059001A90448FFF71CFA14
:1017600006B010BD001001404438024000000240A5
:101770002DE9F84F04460E46174699464FF0000AE9
:1017800094F83D0020285AD106B117B90120BDE8D0
:10179000F88F00BF94F83C00012801D10220F6E741
:1017A000012084F83C0000BF00202064212084F840
:1017B0003D00FFF7DBFA8246A784E784A068B0F516
:1017C000805F04D1206910B90025B04602E035469B
:1017D0004FF0000800BF002084F83C0000BF1BE071
:1017E0005346002280212046CDF8009000F03CFABC
:1017F00008B10320CBE745B9B8F80000C0F30800F2
:101800002168486008F1020803E0287821684860F0
:101810006D1CE08C401EE084E08C0028E0D1534633
:10182000002240212046CDF8009000F01DFA08B1BA
:101830000320ACE7202084F83D000020A7E7022029
:10184000A5E700BFFEE700001FB500200090019053
:1018500002900390174818490860002048604FF034
:10186000807115488160002101610121017600210C
:1018700080F82010C162114981620021C1600121FC
:10188000C161002180F8301001214161FFF760F84B
:1018900008B1FEF782FE0020009001200190072091
:1018A000029069460448FEF77DFE08B1FEF775FE1A
:1018B0001FBD000000200140180000200100000FA3
:1018C00000B587B0142102A8FEF74BFD00BF002031
:1018D00001901848006840F0010016490860084669
:1018E000006800F00100019000BF00BF00BF0020B1
:1018F00001900846006840F008000860084600684B
:1019000000F00800019000BF00BF00224FF400412A
:101910000948FFF725FA4FF4004002900120039098
:10192000002004900220059002A90348FFF734F933
:1019300007B000BD30380240000C024010B50B4823
:101940000B4908604FF4E13048600021084881608D
:10195000C16001610C21416100218161C161FFF71A
:1019600089FE08B1FEF719FE10BD0000001001400D
:101970006000002000BFFEE700BFFEE77047704731
:1019800010B5FFF7F9F910BD00B593B0302107A8E5
:10199000FEF7E7FC142102A8FEF7E3FC00BF0020DD
:1019A00001901F48006840F080501D4908600846BB
:1019B000006800F08050019000BF00BF00BF002011
:1019C00001901848006820F4404040F40040154958
:1019D00008600846006800F44040019000BF00BF66
:1019E0000220079001200A9010200B9000200D90FB
:1019F00007A8FFF7D7FB08B1FEF7CFFD0F20029035
:101A00000020039080200490400105900690002162
:101A100002A8FFF787FA08B1FEF7BFFD13B000BDBB
:101A200040380240007000400348006840F47000F5
:101A3000014908607047000088ED00E02DE9F84F8B
:101A400004462068006920F44050E168084321689A
:101A500008612169A068084361690843E169084396
:101A600000902068C06849F20C61884300990843DF
:101A70002168C8602068406920F44070A16908436B
:101A80002168486176492068884203D075492068FA
:101A9000884203D1FFF71EFB814602E0FFF70AFBF5
:101AA0008146E069B0F5004F6CD102206168A0FB6F
:101AB000015003461920A9FB007001462A4638460A
:101AC000FEF7D8FB6421B0FBF1F04FEA001A0220C8
:101AD0006168A0FB01510B461920A9FB00712A4641
:101AE0003846FEF7C7FB834602206168A0FB015021
:101AF00003461920A9FB00712A463846FEF7BAFBB7
:101B00006421B0FBF1F000EBC00101EB0010ABEB86
:101B10008000322101EBC0006421B0FBF1F000F045
:101B2000F8000AEB400A02206168A0FB015003465E
:101B30001920A9FB007001462A463846FEF79AFB99
:101B4000834602206168A0FB015003461920A9FBCF
:101B500000712A463846FEF78DFB6421B0FBF1F098
:101B600000EBC00101EB0010ABEB8000322101EB78
:101B7000C0006421B0FBF1F000F007005044216880
:101B800088606AE004206168A0FB015003461920C8
:101B9000A9FB007001462A463846FEF76BFB8246D9
:101BA00004206168A0FB015003461920A9FB0070C6
:101BB00001462A463846FEF75DFB6421B0FBF1F092
:101BC00000EBC00101EB0010AAEB8000322101EB19
:101BD00000106421B0FBF1F000F0F00A042061680D
:101BE000A0FB017003461920A9FB00513A46284684
:101BF000FEF740FB6421B0FBF1F00AEB001A042071
:101C00006168A0FB01510B461920A9FB00712A460F
:101C10003846FEF72FFB834604206168A0FB015085
:101C200003461920A9FB007001462A463846FEF7F4
:101C300021FB6421B0FBF1F000EBC00101EB0010CF
:101C4000ABEB8000322101EB00106421B0FBF1F01E
:101C500000F00F00504421688860BDE8F88F000054
:101C600000100140001401402DE9F04104460D46EA
:101C700017469846069E34E0701C88B32EB1FFF7D5
:101C800075F8A0EB0800B0422BD900BF00BF216857
:101C90000C3151E8001F21F4D07021680C3141E86B
:101CA0000002002AF3D100BF00BF00BF2168143139
:101CB00051E8001F21F001002168143141E80002C1
:101CC000002AF3D100BF202084F83D0084F83E00B4
:101CD00000BF002084F83C0000BF0320BDE8F08175
:101CE000FFE7206800682840A84201D1012000E0F9
:101CF0000020B842C0D00020F0E700BFFEE700009F
:101D000002480068C0F30220704700000CED00E0BC
:101D100010B5002804DB0A07130E054A135406E029
:101D20000A07140E034A00F00F031B1FD45410BD02
:101D300000E400E018ED00E01048FEF787FEFFF732
:101D400027F8FFF721FEFFF7BBFDFFF77DFDFFF74B
:101D5000F5FD4FF4FA73142209490A48FFF708FD0C
:101D60000AE04FF4FA73142205490648FFF700FD14
:101D70004FF47A70FEF7FCFEF3E700001800002035
:101D8000000000206000002021F00042A2F160521B
:101D9000B2F5801F01F0004328BFD2F17F6C0BD950
:101DA0005FEA001C43EAC20242EB507018BF704762
:101DB00028BF20F001007047B2F5801FBCBF184655
:101DC00070474FEA410C1CF5001F02D2084600F094
:101DD00080BA70B500F024FA00000089FFF7F6BF62
:101DE0004FF00040A0F58000704700002DE9C04191
:101DF00030B4DFF8A0C23CEA111418BF3CEA131457
:101E000000F0EC8081EA03051CEA111444EAD57461
:101E100018BF1CEA131500F0C780A4EB05044FF0AF
:101E2000004545EAC12145EAC32341EA505143EA4E
:101E3000525304F17F74994204F500344FEAC020F4
:101E40004FEAC22208BF904200F09C804FEA13651F
:101E50000FF24016765D4FEA134506FB05F7C7F112
:101E6000807706FB07F74FEAD737A7FB0368764270
:101E7000C8F58038A7FB06CE38BFA8F1010807FBDC
:101E800008E64FF0000EA6FB028CE6FB03CEDCF169
:101E9000000CCEF1004E38BFAEF1010EA6FB0C587F
:101EA0004FF000074FF00005E6FB0E87A1FB08C6C8
:101EB000A0FB07CE16EB0E0645F10005E1FB07651A
:101EC00015F1E04E7EBFA4F580345FEA46066D4111
:101ED00016F1800745F100054FEA17274FEA06661D
:101EE00047EA0567A6F1DE46B6F1805F4FEA1525A1
:101EF0001FD9384624F0010C05EBC471BCF1FE6F0C
:101F000001EB0C1102D8F0BCBDE8008124425CBF9B
:101F100001F5801E9EEAC47F02D4F0BCBDE80081BA
:101F2000244238D4F0BCA1F1C041BDE8004100F02A
:101F3000C5B94FEAD22242EA43524FEAD323A7FB64
:101F400002864FEAD02040EA415007FB03661EEAB2
:101F50000E0F4FEAD12105FB026658BFA6EB0056D3
:101F6000B6EB00564FEA520E4EEAC37E18EB0E0E49
:101F700056EB530EBDD518EB02085E417F1C55F1A0
:101F80000005B6E74FF480154FF000074FF000064C
:101F90004FF00008ADE7F0BC4FF0000001F1C04188
:101FA00001F00041BDE8008111EA0C1F0CEA131595
:101FB00000D00CE013EA0C1F00F025804FF0000069
:101FC000F0BC81EA030101F00041BDE80081F0BCF2
:101FD00081EA0301BDE8004100F070B9F0BCBDE842
:101FE000004170B500F01CF9097EFC3E00F007B816
:101FF00081EA03014FF0000001F00041704781EADF
:10200000030100F05BB9F0BC4FF000002249BDE8CD
:1020100000417047FFFDFBF9F7F5F4F2F0EEEDEB50
:10202000E9E8E6E4E3E1E0DEDDDBDAD8D7D5D4D3D6
:10203000D1D0CFCDCCCBCAC8C7C6C5C4C2C1C0BF22
:10204000BEBDBCBBBAB9B8B7B6B5B4B3B2B1B0AF28
:10205000AEADACABAAA9A8A8A7A6A5A4A3A3A2A10C
:10206000A09F9F9E9D9C9C9B9A99999897979695C7
:1020700095949393929191908F8F8E8E8D8C8C8B63
:102080008B8A8989888887878685858484838382EB
:10209000828181800000FF070000F87F10F000427D
:1020A00048BF4042B0FA80F310FA03F10AD0C3F1FE
:1020B0001D0303F580634FEA415002EB035202EB2C
:1020C000D12170474FF0000070470000DFF848C191
:1020D00070B51CEA111E1EBF1CEA13159EEA0C0FF8
:1020E00095EA0C0F00F06F8081EA030423EA4C1399
:1020F0004EEAD47E21EA4C1141F4801143F480135E
:10210000AE44A1FB024CA0FB0365AEF17F7E361905
:1021100055EB0C05A1FB034C4CF10003A0FB021C8A
:1021200016EB0C06654153F10003094218BF46F057
:10213000010613F4007F0BD14FEA03314FEA05305B
:10214000340341EA155140EA16506FF003020AE0E9
:102150004FEAC3214FEAC520F40241EA555140EA53
:1021600056506FF0020202EB2E4201EB025585EA57
:10217000CE710AD05FEA440C18BF24F0004450F13D
:10218000000041F1000120EAD47040F2FE7C62457B
:1021900000D270BDA84214BF4FF080444FF04044BD
:1021A000002E08BF0024BEF1806FA8BFA1F1C0417E
:1021B000BDE8704080F282804FF0000001F1C04124
:1021C00001F0004170479EEA0C0F0CEA131518BF8E
:1021D00095EA0C0F06D04FF0000081EA030E0EF0D6
:1021E000004170BD00F01CF88900013E00F007B806
:1021F00000F009B84FEA430C5FEA5C5C08D081EA62
:10220000030100F05BB84FEA410C5FEA5C5CF6D179
:102210004FF00000014970470000FF070000F87F01
:102220000EF1020E2EF0030E5EF8046B364205D45A
:10223000012A43EB030515F5001F12D8012841EBD5
:10224000010C1CF5001F0CD80ED14FEAD17C15F5FE
:10225000001F0CEB4C0C0CF1020C08BF4CEBD37CB8
:1022600004E04FF0080C01E04FEAD37C0CEB4C0586
:1022700026FA05F606F00706B6F1040C06D20EEBB8
:10228000860CBDE870404CF0010C6047DFE80CF0B4
:10229000090B02024FF000414FF00000A1F50021B0
:1022A00070BD19461046012851EB010418BFD4F542
:1022B000001484BF002001F0004170BD0808A0F5A3
:1022C00000114FEA310170474FF04070E1EE100A03
:1022D0007047FF2141EAD050C00570470000000060
:1022E00000000000010203040607080900000000C6
:1022F000010203041423000800000020180000005D
:10230000D00100082C23000818000020F00600006F
:10231000EC0100086162630D0A000000000000008B
:0C23200010000000010000000024F40088
:040000050800019559
:00000001FF
