:100000000C945D000C9485000C9485000C94850084
:100010000C9485000C9485000C9485000C9485004C
:100020000C9485000C9485000C9485000C9485003C
:100030000C9485000C9485000C9485000C9485002C
:100040000C946E030C9485000C943C030C941603E2
:100050000C9485000C9485000C9485000C9485000C
:100060000C9485000C94850000000008000201003B
:100070000003040700000000000000000000000072
:10008000250028002B0000000000240027002A0083
:10009000040404040404040402020202020203032E
:1000A0000303030301020408102040800102040836
:1000B0001020010204081020DA0411241FBECFEF23
:1000C000D8E0DEBFCDBF11E0A0E0B1E0ECECFAE09B
:1000D00002C005900D92A631B107D9F721E0A6E143
:1000E000B1E001C01D92A83CB207E1F710E0CDE5F8
:1000F000D0E004C02197FE010E945E05CC35D107F7
:10010000C9F70E94B8030C9464050C94000090E0B9
:10011000FC01EC55FF4F249180579F4FFC018491C7
:10012000882399F090E0880F991FFC01EA57FF4F50
:10013000A591B491FC01E458FF4F859194918FB73C
:10014000F894EC91E22BEC938FBF0895AF92BF929D
:10015000CF92DF92EF92FF920F931F93CF93DF9393
:100160006C017B018B01040F151FEB015E01AE18C2
:10017000BF08C017D10759F06991D601ED91FC91E4
:100180000190F081E02DC6010995892B79F7C50111
:10019000DF91CF911F910F91FF90EF90DF90CF9063
:1001A000BF90AF900895FC01538D448D252F30E012
:1001B000842F90E0821B930B541710F0CF96089574
:1001C00001970895FC01918D828D981761F0A28DA1
:1001D000AE0FBF2FB11D5D968C91928D9F5F9F7367
:1001E000928F90E008958FEF9FEF0895FC01918D1D
:1001F000828D981731F0828DE80FF11D858D90E08A
:1002000008958FEF9FEF0895FC01918D228D892F26
:1002100090E0805C9F4F821B91098F73992708950E
:100220008BE291E00E94040121E0892B09F420E097
:10023000822F089580E090E0892B29F00E94100120
:1002400081110C9400000895FC01A48DA80FB92F12
:10025000B11DA35ABF4F2C91848D90E001968F73EE
:100260009927848FA689B7892C93A089B1898C910D
:10027000837080648C93938D848D981306C002885C
:10028000F389E02D80818F7D80830895EF92FF9226
:100290000F931F93CF93DF93EC0181E0888F9B8DA9
:1002A0008C8D98131AC0E889F989808185FF15C063
:1002B0009FB7F894EE89FF896083E889F989808186
:1002C0008370806480839FBF81E090E0DF91CF9155
:1002D0001F910F91FF90EF900895F62E0B8D10E077
:1002E0000F5F1F4F0F731127E02E8C8D8E110CC0E6
:1002F0000FB607FCFACFE889F989808185FFF5CF31
:10030000CE010E942401F1CFEB8DEC0FFD2FF11DEA
:10031000E35AFF4FF0829FB7F8940B8FEA89FB896D
:1003200080818062CFCFCF93DF93EC01888D8823CB
:10033000B9F0AA89BB89E889F9898C9185FD03C048
:10034000808186FD0DC00FB607FCF7CF8C9185FF2D
:10035000F2CF808185FFEDCFCE010E942401E9CF4D
:10036000DF91CF91089590E0FC01E859FF4F24916F
:10037000FC01EC55FF4F3491FC01E057FF4FE49135
:10038000EE23C9F0222339F0233001F1A8F4213003
:1003900019F1223029F1F0E0EE0FFF1FE458FF4F72
:1003A000A591B4918FB7F894EC91611126C0309566
:1003B0003E233C938FBF08952730A9F02830C9F021
:1003C000243049F7809180008F7D03C080918000A8
:1003D0008F7780938000DFCF84B58F7784BDDBCFAC
:1003E00084B58F7DFBCF8091B0008F778093B00074
:1003F000D2CF8091B0008F7DF9CF3E2BDACF1F9303
:10040000CF93DF93182FEB010E948700209739F4D8
:1004100060E0812FDF91CF911F910C94B301CF3F0A
:10042000D10511F461E0F5CFE12FF0E0E859FF4F7D
:10043000E491E33031F140F4E130B1F0E230E1F049
:10044000C038D1057CF7E4CFE73029F1E83059F125
:10045000E430B1F780918000806280938000D09377
:100460008B00C0938A0004C084B5806884BDC7BD7A
:10047000DF91CF911F91089584B5806284BDC8BD7E
:10048000F7CF80918000806880938000D0938900AE
:10049000C0938800EDCF8091B00080688093B00059
:1004A000C093B300E5CF8091B00080628093B0002C
:1004B000C093B400DDCF8E50806480937C00809127
:1004C0007A00806480937A0080917A0086FDFCCF68
:1004D000809178009091790008953FB7F8948091C9
:1004E0001B0190911C01A0911D01B0911E0126B528
:1004F000A89B05C02F3F19F00196A11DB11D3FBF5C
:10050000BA2FA92F982F8827BC01CD01620F711D2A
:10051000811D911D42E0660F771F881F991F4A9524
:10052000D1F708958F929F92AF92BF920F931F932E
:10053000CF93DF93CDB7DEB7A1970FB6F894DEBFA8
:100540000FBECDBF19A2423008F44AE08E010F5D04
:100550001F4F842E912CB12CA12CA50194010E9437
:100560002605E62FB901CA01EA3044F5E05DD8015D
:10057000EE938D01232B242B252B79F790E080E03F
:10058000109769F0FD0101900020E9F73197AF0164
:100590004A1B5B0BBD018BE291E00E94A600A19675
:1005A0000FB6F894DEBF0FBECDBFDF91CF911F9184
:1005B0000F91BF90AF909F908F900895E95CD7CF37
:1005C000CF92DF92EF92FF92CF93DF936C01990F5E
:1005D000EE08FF08F7FE23C06DE28BE291E00E9477
:1005E0004601EC0166277727CB016C197D098E093E
:1005F0009F094AE00E949202C80FD91F42E050E0D2
:1006000062E171E08BE291E00E94A6008C0F9D1FD9
:10061000DF91CF91FF90EF90DF90CF9008954AE067
:10062000C701B6010E949202EC01E8CF1F920F921F
:100630000FB60F9211242F933F934F935F936F93B5
:100640007F938F939F93AF93BF93EF93FF938BE22F
:1006500091E00E942401FF91EF91BF91AF919F9192
:100660008F917F916F915F914F913F912F910F905B
:100670000FBE0F901F9018951F920F920FB60F92FA
:1006800011242F938F939F93EF93FF93E0913B015E
:10069000F0913C018081E0914101F091420182FDA5
:1006A0001BC09081809144018F5F8F732091450121
:1006B000821741F0E0914401F0E0E55DFE4F958F37
:1006C00080934401FF91EF919F918F912F910F9013
:1006D0000FBE0F901F9018958081F4CF1F920F923C
:1006E0000FB60F9211242F933F938F939F93AF9345
:1006F000BF938091170190911801A0911901B091B9
:100700001A013091160123E0230F2D3758F5019679
:10071000A11DB11D2093160180931701909318011C
:10072000A0931901B0931A0180911B0190911C01B3
:10073000A0911D01B0911E010196A11DB11D8093D4
:100740001B0190931C01A0931D01B0931E01BF914A
:10075000AF919F918F913F912F910F900FBE0F906E
:100760001F90189526E8230F0296A11DB11DD2CF28
:10077000CF93DF9300D000D0CDB7DEB7789484B5A7
:10078000826084BD84B5816084BD85B5826085BD8D
:1007900085B5816085BD80916E00816080936E001B
:1007A000109281008091810082608093810080910D
:1007B00081008160809381008091800081608093BE
:1007C00080008091B10084608093B1008091B0007E
:1007D00081608093B00080917A00846080937A0079
:1007E00080917A00826080937A0080917A008160A3
:1007F00080937A0080917A00806880937A001092CA
:10080000C100E0913B01F0913C0182E08083E091E6
:100810003701F09138011082E0913901F0913A01ED
:100820008FEC808310924301E0913F01F0914001F1
:1008300086E08083E0913D01F0913E0180818061FE
:100840008083E0913D01F0913E018081886080834A
:10085000E0913D01F0913E01808180688083E091CC
:100860003D01F0913E0180818F7D80838BE00E946D
:1008700087008AE00E94870089E00E948700CC24DC
:10088000CA9493E0D92EE12CF12C8EE00E945B02F9
:100890003C0190932A01809329018FE00E945B0222
:1008A0005C01909328018093270180E10E945B0204
:1008B0004C0190932601809325012FEF30E0D30166
:1008C0000E945705A70196010E94070529833A83D4
:1008D0004B835C8389819A819093240180932301C7
:1008E0002FEF30E0D5010E945705A70196010E9425
:1008F0000705290130932201209321012FEF30E0D9
:10090000D4010E945705A70196010E9407054901DD
:100910003093200120931F0169817A818BE00E942E
:10092000FF01B2018AE00E94FF01B40189E00E9448
:10093000FF018EE00E945B020E94E0028FE00E94B5
:100940005B020E94E00280E10E945B020E94E002E2
:100950000E946D022B013C0188EE882E83E0982EC8
:10096000A12CB12C0E946D026419750986099709A2
:10097000683E734081059105A8F391E0891A9108BA
:10098000A108B10828EE420E23E0521E611C711C22
:1009900081149104A104B10429F780E090E0892B2F
:1009A00009F473CF0E941001882309F46ECF0E94CE
:1009B00000006BCFEBE2F1E01382128288EE93E04D
:1009C000A0E0B0E084839583A683B78384E091E0C0
:1009D0009183808385EC90E09587848784EC90E018
:1009E0009787868780EC90E0918B808B81EC90E0FC
:1009F000938B828B82EC90E0958B848B86EC90E0DD
:100A0000978B868B118E128E138E148E0895052E61
:100A100097FB1EF400940E941E0557FD07D00E940C
:100A2000260507FC03D04EF40C941E055095409506
:100A3000309521953F4F4F4F5F4F0895909580958A
:100A4000709561957F4F8F4F9F4F0895A1E21A2EA9
:100A5000AA1BBB1BFD010DC0AA1FBB1FEE1FFF1F62
:100A6000A217B307E407F50720F0A21BB30BE40BB2
:100A7000F50B661F771F881F991F1A9469F76095F9
:100A80007095809590959B01AC01BD01CF010895B3
:100A9000A29FB001B39FC001A39F700D811D1124BF
:100AA000911DB29F700D811D1124911D08950E940A
:100AB0004805B7FF0895821B930B0895EE0FFF1FA3
:0C0AC0000590F491E02D0994F894FFCF0C
:100ACC00000000004601A600D30093010401E200DF
:060ADC00F6000D0A000007
:00000001FF
