:100000000C945D000C9485000C9485000C94850084
:100010000C9485000C9485000C9485000C9485004C
:100020000C9485000C9485000C9485000C9485003C
:100030000C9485000C9485000C9485000C9485002C
:100040000C94AA020C9485000C9478020C94520231
:100050000C9485000C9485000C9485000C9485000C
:100060000C9485000C9485000000000024002700FB
:100070002A0000000000250028002B0004040404CE
:100080000404040402020202020203030303030342
:10009000010204081020408001020408102001021F
:1000A00004081020000000080002010000030407FB
:1000B0000000000000000000960411241FBECFEFD6
:1000C000D8E0DEBFCDBF11E0A0E0B1E0E8EDFDE09B
:1000D00002C005900D92A232B107D9F721E0A2E249
:1000E000B1E001C01D92A83CB207E1F710E0CDE5F8
:1000F000D0E004C02197FE010E94E406CC35D10770
:10010000C9F70E94F4020C94EA060C940000E1EB9B
:10011000F0E02491EDE9F0E09491E9E8F0E0E49179
:10012000EE23C9F0222339F0233001F1A8F4213065
:1001300019F1223029F1F0E0EE0FFF1FEE58FF4FCA
:10014000A591B4912FB7F894EC91811126C09095A8
:100150009E239C932FBF08952730A9F02830C9F023
:10016000243049F7209180002F7D03C0209180002A
:100170002F7720938000DFCF24B52F7724BDDBCFEE
:1001800024B52F7DFBCF2091B0002F772093B000B6
:10019000D2CF2091B0002F7DF9CF9E2BDACFAF9236
:1001A000BF92CF92DF92EF92FF920F931F93CF9364
:1001B000DF936C017B018B01040F151FEB015E01C6
:1001C000AE18BF08C017D10759F06991D601ED915B
:1001D000FC910190F081E02DC6010995892B79F7FA
:1001E000C501DF91CF911F910F91FF90EF90DF90AC
:1001F000CF90BF90AF900895FC01538D448D252F73
:1002000030E0842F90E0821B930B541710F0CF96B0
:10021000089501970895FC01918D828D981761F0E2
:10022000A28DAE0FBF2FB11D5D968C91928D9F5FF9
:100230009F73928F90E008958FEF9FEF0895FC01D8
:10024000918D828D981731F0828DE80FF11D858D8B
:1002500090E008958FEF9FEF0895FC01918D228D1E
:10026000892F90E0805C9F4F821B91098F739927A3
:1002700008958BE291E00E942D0121E0892B09F481
:1002800020E0822F089580E090E0892B29F00E94E1
:10029000390181110C9400000895FC01A48DA80F70
:1002A000B92FB11DA35ABF4F2C91848D90E00196B8
:1002B0008F739927848FA689B7892C93A089B189D8
:1002C0008C91837080648C93938D848D981306C079
:1002D0000288F389E02D80818F7D80830895EF92DD
:1002E000FF920F931F93CF93DF93EC0181E0888FF0
:1002F0009B8D8C8D98131AC0E889F989808185FFC0
:1003000015C09FB7F894EE89FF896083E889F98961
:1003100080818370806480839FBF81E090E0DF9163
:10032000CF911F910F91FF90EF900895F62E0B8DB6
:1003300010E00F5F1F4F0F731127E02E8C8D8E1171
:100340000CC00FB607FCFACFE889F989808185FFD8
:10035000F5CFCE010E944D01F1CFEB8DEC0FFD2FBB
:10036000F11DE35AFF4FF0829FB7F8940B8FEA8993
:10037000FB8980818062CFCFCF93DF93EC01888DA2
:100380008823B9F0AA89BB89E889F9898C9185FD10
:1003900003C0808186FD0DC00FB607FCF7CF8C919E
:1003A00085FFF2CF808185FFEDCFCE010E944D0108
:1003B000E9CFDF91CF9108953FB7F894809127015D
:1003C00090912801A0912901B0912A0126B5A89BFE
:1003D00005C02F3F19F00196A11DB11D3FBFBA2FD7
:1003E000A92F982F8827BC01CD01620F711D811D97
:1003F000911D42E0660F771F881F991F4A95D1F71C
:100400000895FC0101900020E9F73197AF01481BE6
:10041000590BBC018BE291E00C94CF008F929F921C
:10042000AF92BF920F931F93CF93DF93CDB7DEB7F9
:10043000A1970FB6F894DEBF0FBECDBF19A2423010
:1004400008F44AE08E010F5D1F4F842E912CB12CD1
:10045000A12CA50194010E94E204E62FB901CA0172
:10046000EA30F4F4E05DD801EE938D01232B242BC8
:10047000252B79F790E080E0109719F0CD010E94CC
:100480000102A1960FB6F894DEBF0FBECDBFDF917B
:10049000CF911F910F91BF90AF909F908F90089533
:1004A000E95CE1CF1F920F920FB60F9211242F93A8
:1004B0003F934F935F936F937F938F939F93AF93EC
:1004C000BF93EF93FF938BE291E00E944D01FF9168
:1004D000EF91BF91AF919F918F917F916F915F91BC
:1004E0004F913F912F910F900FBE0F901F90189535
:1004F0001F920F920FB60F9211242F938F939F93F9
:10050000EF93FF93E0913B01F0913C018081E091FA
:100510004101F091420182FD1BC090818091440114
:100520008F5F8F7320914501821741F0E091440164
:10053000F0E0E55DFE4F958F80934401FF91EF91D0
:100540009F918F912F910F900FBE0F901F90189534
:100550008081F4CF1F920F920FB60F9211242F9328
:100560003F938F939F93AF93BF938091230190917B
:100570002401A0912501B09126013091220123E0B0
:10058000230F2D3758F50196A11DB11D209322018F
:100590008093230190932401A0932501B093260119
:1005A0008091270190912801A0912901B0912A0101
:1005B0000196A11DB11D8093270190932801A0935E
:1005C0002901B0932A01BF91AF919F918F913F91E3
:1005D0002F910F900FBE0F901F90189526E8230FB4
:1005E0000296A11DB11DD2CF789484B5826084BDDE
:1005F00084B5816084BD85B5826085BD85B5816027
:1006000085BD80916E00816080936E0010928100A4
:10061000809181008260809381008091810081605F
:100620008093810080918000816080938000809120
:10063000B10084608093B1008091B00081608093AC
:10064000B00080917A00846080937A0080917A0073
:10065000826080937A0080917A00816080937A0032
:1006600080917A00806880937A001092C100EDE951
:10067000F0E02491E9E8F0E08491882399F090E09B
:10068000880F991FFC01E859FF4FA591B491FC0117
:10069000EE58FF4F859194918FB7F894EC91E22B2F
:1006A000EC938FBFE0913B01F0913C0182E08083AD
:1006B000E0913701F09138011082E0913901F09119
:1006C0003A018FEC808310924301E0913F01F09159
:1006D000400186E08083E0913D01F0913E01808100
:1006E00080618083E0913D01F0913E0180818860CE
:1006F0008083E0913D01F0913E018081806880839C
:10070000E0913D01F0913E0180818F7D808310E476
:10071000C0E0D0E010937C0080917A0080648093E8
:100720007A0080917A0086FDFCCF80917800A091BC
:100730007900BA2FA82F28EC30E00E94DD062AE9C4
:1007400031E040E050E00E94C304CA01B9016253A5
:100750007109810991090E94B60520E030E040E866
:100760005FE30E9414056B017C01AC019B010E94B8
:10077000D806882309F446C082E191E00E94010274
:100780008EE191E00E94010220E030E040E152E47D
:10079000C701B6010E94660618160CF0C5C081E0BC
:1007A0000E9487000E94DC014B015C0188EEC82E8C
:1007B00083E0D82EE12CF12C0E94DC016819790924
:1007C0008A099B09683E734081059105A8F321E0E1
:1007D000C21AD108E108F10888EE880E83E0981E5D
:1007E000A11CB11CC114D104E104F10429F7209724
:1007F00009F490CF0E943901882309F48BCF0E941D
:10080000000088CF46015701E894B7F82FEF3FEF7B
:100810004FE75FE7C501B4010E94D80681110DC002
:100820002FEF3FEF4FE75FE7C501B4010E9480055E
:1008300018161CF486E191E0A1CF2FEF3FEF4FE7B0
:100840005FE4C701B6010E94660618161CF48AE12F
:1008500091E094CF2FEF3FEF4FE75FECC701B60178
:100860000E94800587FDF3CF20E030E0A901C70199
:10087000B6010E94800587FF54C06DE28BE291E0D3
:100880000E946F01C701B60190582AE037ED43EA94
:100890005BE30E9414052B013C010E9485054B017E
:1008A0005C010E94B4059B01AC01C301B2010E942E
:1008B00013052B013C014AE0C501B4010E940E0260
:1008C0006EE28BE291E00E946F0120E030E040E2B6
:1008D00051E4C301B2010E946B062B013C010E944E
:1008E00085054B01B12CA12C4AE0C501B4010E9441
:1008F0000E02C501B4010E94B4059B01AC01C30105
:10090000B2010E94130520E030E040E251E40E9471
:100910006B060E94850590E080E04AE00E940E028E
:100920002FCFC701B601B1CF80E03ACFEBE2F1E0C3
:100930001382128288EE93E0A0E0B0E08483958376
:10094000A683B78384E091E09183808385EC90E077
:100950009587848784EC90E09787868780EC90E089
:10096000918B808B81EC90E0938B828B82EC90E07A
:10097000958B848B86EC90E0978B868B118E128EF4
:10098000138E148E0895052E97FB1EF400940E947A
:10099000DA0457FD07D00E94E20407FC03D04EF4AE
:1009A0000C94DA0450954095309521953F4F4F4F68
:1009B0005F4F089590958095709561957F4F8F4F0B
:1009C0009F4F0895A1E21A2EAA1BBB1BFD010DC06B
:1009D000AA1FBB1FEE1FFF1FA217B307E407F507EF
:1009E00020F0A21BB30BE40BF50B661F771F881FCB
:1009F000991F1A9469F760957095809590959B0161
:100A0000AC01BD01CF010895A29FB001B39FC00109
:100A1000A39F700D811D1124911DB29F700D811D2A
:100A20001124911D08955058BB27AA270E942B0519
:100A30000C942C060E941E0638F00E94250620F019
:100A400039F49F3F19F426F40C941B060EF4E0953C
:100A5000E7FB0C941506E92F0E943D0658F3BA17E0
:100A6000620773078407950720F079F4A6F50C94C4
:100A70005F060EF4E0950B2EBA2FA02D0B01B901E5
:100A800090010C01CA01A0011124FF27591B99F004
:100A9000593F50F4503E68F11A16F040A22F232F10
:100AA000342F4427585FF3CF469537952795A79560
:100AB000F0405395C9F77EF41F16BA0B620B730B07
:100AC000840BBAF09150A1F0FF0FBB1F661F771F78
:100AD000881FC2F70EC0BA0F621F731F841F48F42D
:100AE000879577956795B795F7959E3F08F0B0CFB6
:100AF0009395880F08F09927EE0F9795879508959D
:100B00000E94F10508F481E008950E94450688F0EE
:100B10009F5798F0B92F9927B751B0F0E1F0660FC1
:100B2000771F881F991F1AF0BA95C9F714C0B13002
:100B300091F00E945F06B1E008950C945F06672F64
:100B4000782F8827B85F39F0B93FCCF38695779531
:100B50006795B395D9F73EF490958095709561951A
:100B60007F4F8F4F9F4F0895E89409C097FB3EF445
:100B700090958095709561957F4F8F4F9F4F9923EA
:100B8000A9F0F92F96E9BB279395F6958795779568
:100B90006795B795F111F8CFFAF4BB0F11F460FF28
:100BA0001BC06F5F7F4F8F4F9F4F16C0882311F080
:100BB00096E911C0772321F09EE8872F762F05C094
:100BC000662371F096E8862F70E060E02AF09A952F
:100BD000660F771F881FDAF7880F9695879597F924
:100BE0000895990F0008550FAA0BE0E8FEEF1616BE
:100BF0001706E807F907C0F012161306E407F50711
:100C000098F0621B730B840B950B39F40A2661F084
:100C1000232B242B252B21F408950A2609F4A14027
:100C2000A6958FEF811D811D089597F99F6780E834
:100C300070E060E008959FEF80EC089500240A942E
:100C40001616170618060906089500240A941216A7
:100C50001306140605060895092E0394000C11F4DA
:100C6000882352F0BB0F40F4BF2B11F460FF04C087
:100C70006F5F7F4F8F4F9F4F089557FD9058440FE0
:100C8000551F59F05F3F71F04795880F97FB991FEB
:100C900061F09F3F79F087950895121613061406A8
:100CA000551FF2CF4695F1DF08C016161706180635
:100CB000991FF1CF86957105610508940895E89410
:100CC000BB2766277727CB0197F908950E94F10586
:100CD00008F48FEF08950E947E060C942C060E9463
:100CE0001E0638F00E94250620F0952311F00C9482
:100CF00015060C941B0611240C9460060E943D06F8
:100D000070F3959FC1F3950F50E0551F629FF0015E
:100D1000729FBB27F00DB11D639FAA27F00DB11D77
:100D2000AA1F649F6627B00DA11D661F829F222700
:100D3000B00DA11D621F739FB00DA11D621F839F87
:100D4000A00D611D221F749F3327A00D611D231F5D
:100D5000849F600D211D822F762F6A2F11249F57AB
:100D600050409AF0F1F088234AF0EE0FFF1FBB1FAE
:100D7000661F771F881F91505040A9F79E3F51056D
:100D800080F00C9415060C9460065F3FE4F3983EE7
:100D9000D4F3869577956795B795F795E7959F5F17
:100DA000C1F7FE2B880F911D9695879597F90895A9
:100DB0000E94F105880B990B08950E940405B7FF66
:100DC0000895821B930B0895EE0FFF1F0590F49179
:080DD000E02D0994F894FFCF17
:100DD800000000006F01CF00FC00BC012D010B01D9
:100DE8001F016E616E00696E66006F7666000D0AFF
:020DF8000000F9
:00000001FF
